{
  "contractName": "DepositWallet",
  "abi": [
    {
      "inputs": [
        {
          "internalType": "contract PeceiptToken",
          "name": "_peceiptToken",
          "type": "address"
        },
        {
          "internalType": "contract TetherToken",
          "name": "_tetherToken",
          "type": "address"
        }
      ],
      "stateMutability": "nonpayable",
      "type": "constructor"
    },
    {
      "anonymous": false,
      "inputs": [
        {
          "indexed": true,
          "internalType": "address",
          "name": "previousOwner",
          "type": "address"
        },
        {
          "indexed": true,
          "internalType": "address",
          "name": "newOwner",
          "type": "address"
        }
      ],
      "name": "OwnershipTransferred",
      "type": "event"
    },
    {
      "anonymous": false,
      "inputs": [
        {
          "indexed": false,
          "internalType": "uint256",
          "name": "_PFXincirculation",
          "type": "uint256"
        }
      ],
      "name": "PFXincirculationUpdated",
      "type": "event"
    },
    {
      "anonymous": false,
      "inputs": [
        {
          "indexed": false,
          "internalType": "uint256",
          "name": "_PFXtomUSDT",
          "type": "uint256"
        }
      ],
      "name": "PFXtomUSDTUpdated",
      "type": "event"
    },
    {
      "anonymous": false,
      "inputs": [
        {
          "indexed": false,
          "internalType": "address",
          "name": "account",
          "type": "address"
        },
        {
          "indexed": false,
          "internalType": "uint256",
          "name": "tetherDeposited",
          "type": "uint256"
        },
        {
          "indexed": false,
          "internalType": "uint256",
          "name": "lpReceived",
          "type": "uint256"
        },
        {
          "indexed": false,
          "internalType": "uint256",
          "name": "timeStamp",
          "type": "uint256"
        }
      ],
      "name": "Staked",
      "type": "event"
    },
    {
      "anonymous": false,
      "inputs": [
        {
          "indexed": false,
          "internalType": "address",
          "name": "account",
          "type": "address"
        },
        {
          "indexed": false,
          "internalType": "uint256",
          "name": "tetherAdded",
          "type": "uint256"
        },
        {
          "indexed": false,
          "internalType": "uint256",
          "name": "timeStamp",
          "type": "uint256"
        }
      ],
      "name": "addToPool",
      "type": "event"
    },
    {
      "anonymous": false,
      "inputs": [
        {
          "indexed": false,
          "internalType": "uint256",
          "name": "_mUSDTfees",
          "type": "uint256"
        }
      ],
      "name": "mUSDTfeesUpdated",
      "type": "event"
    },
    {
      "anonymous": false,
      "inputs": [
        {
          "indexed": false,
          "internalType": "uint256",
          "name": "_mUSDTpool",
          "type": "uint256"
        }
      ],
      "name": "mUSDTpoolUpdated",
      "type": "event"
    },
    {
      "anonymous": false,
      "inputs": [
        {
          "indexed": false,
          "internalType": "uint256",
          "name": "_mUSDTtoPFX",
          "type": "uint256"
        }
      ],
      "name": "mUSDTtoPFXUpdated",
      "type": "event"
    },
    {
      "anonymous": false,
      "inputs": [
        {
          "indexed": false,
          "internalType": "address",
          "name": "account",
          "type": "address"
        },
        {
          "indexed": false,
          "internalType": "uint256",
          "name": "tetherTransferred",
          "type": "uint256"
        },
        {
          "indexed": false,
          "internalType": "uint256",
          "name": "timeStamp",
          "type": "uint256"
        }
      ],
      "name": "transferFromFeesToPool",
      "type": "event"
    },
    {
      "anonymous": false,
      "inputs": [
        {
          "indexed": false,
          "internalType": "address",
          "name": "account",
          "type": "address"
        },
        {
          "indexed": false,
          "internalType": "uint256",
          "name": "lpDeposited",
          "type": "uint256"
        },
        {
          "indexed": false,
          "internalType": "uint256",
          "name": "tetherReceived",
          "type": "uint256"
        },
        {
          "indexed": false,
          "internalType": "uint256",
          "name": "timeStamp",
          "type": "uint256"
        }
      ],
      "name": "unStaked",
      "type": "event"
    },
    {
      "anonymous": false,
      "inputs": [
        {
          "indexed": false,
          "internalType": "address",
          "name": "account",
          "type": "address"
        },
        {
          "indexed": false,
          "internalType": "uint256",
          "name": "tetherWithdrawn",
          "type": "uint256"
        },
        {
          "indexed": false,
          "internalType": "uint256",
          "name": "timeStamp",
          "type": "uint256"
        }
      ],
      "name": "withdrawFromFees",
      "type": "event"
    },
    {
      "anonymous": false,
      "inputs": [
        {
          "indexed": false,
          "internalType": "address",
          "name": "account",
          "type": "address"
        },
        {
          "indexed": false,
          "internalType": "uint256",
          "name": "tetherWithdrawn",
          "type": "uint256"
        },
        {
          "indexed": false,
          "internalType": "uint256",
          "name": "timeStamp",
          "type": "uint256"
        }
      ],
      "name": "withdrawFromPool",
      "type": "event"
    },
    {
      "inputs": [],
      "name": "PFXincirculation",
      "outputs": [
        {
          "internalType": "uint256",
          "name": "",
          "type": "uint256"
        }
      ],
      "stateMutability": "view",
      "type": "function",
      "constant": true
    },
    {
      "inputs": [],
      "name": "PFXtomUSDT",
      "outputs": [
        {
          "internalType": "uint256",
          "name": "",
          "type": "uint256"
        }
      ],
      "stateMutability": "view",
      "type": "function",
      "constant": true
    },
    {
      "inputs": [],
      "name": "isOwner",
      "outputs": [
        {
          "internalType": "bool",
          "name": "",
          "type": "bool"
        }
      ],
      "stateMutability": "view",
      "type": "function",
      "constant": true
    },
    {
      "inputs": [],
      "name": "mUSDTfees",
      "outputs": [
        {
          "internalType": "uint256",
          "name": "",
          "type": "uint256"
        }
      ],
      "stateMutability": "view",
      "type": "function",
      "constant": true
    },
    {
      "inputs": [],
      "name": "mUSDTpool",
      "outputs": [
        {
          "internalType": "uint256",
          "name": "",
          "type": "uint256"
        }
      ],
      "stateMutability": "view",
      "type": "function",
      "constant": true
    },
    {
      "inputs": [],
      "name": "mUSDTtoPFX",
      "outputs": [
        {
          "internalType": "uint256",
          "name": "",
          "type": "uint256"
        }
      ],
      "stateMutability": "view",
      "type": "function",
      "constant": true
    },
    {
      "inputs": [],
      "name": "name",
      "outputs": [
        {
          "internalType": "string",
          "name": "",
          "type": "string"
        }
      ],
      "stateMutability": "view",
      "type": "function",
      "constant": true
    },
    {
      "inputs": [],
      "name": "owner",
      "outputs": [
        {
          "internalType": "address",
          "name": "",
          "type": "address"
        }
      ],
      "stateMutability": "view",
      "type": "function",
      "constant": true
    },
    {
      "inputs": [],
      "name": "ownerAdd",
      "outputs": [
        {
          "internalType": "address",
          "name": "",
          "type": "address"
        }
      ],
      "stateMutability": "view",
      "type": "function",
      "constant": true
    },
    {
      "inputs": [],
      "name": "peceiptToken",
      "outputs": [
        {
          "internalType": "contract PeceiptToken",
          "name": "",
          "type": "address"
        }
      ],
      "stateMutability": "view",
      "type": "function",
      "constant": true
    },
    {
      "inputs": [],
      "name": "stakingFee",
      "outputs": [
        {
          "internalType": "uint8",
          "name": "",
          "type": "uint8"
        }
      ],
      "stateMutability": "view",
      "type": "function",
      "constant": true
    },
    {
      "inputs": [],
      "name": "tetherToken",
      "outputs": [
        {
          "internalType": "contract TetherToken",
          "name": "",
          "type": "address"
        }
      ],
      "stateMutability": "view",
      "type": "function",
      "constant": true
    },
    {
      "inputs": [],
      "name": "getUSDTpool",
      "outputs": [
        {
          "internalType": "uint256",
          "name": "",
          "type": "uint256"
        }
      ],
      "stateMutability": "view",
      "type": "function",
      "constant": true
    },
    {
      "inputs": [],
      "name": "getPFXincirculation",
      "outputs": [
        {
          "internalType": "uint256",
          "name": "",
          "type": "uint256"
        }
      ],
      "stateMutability": "view",
      "type": "function",
      "constant": true
    },
    {
      "inputs": [],
      "name": "getmUSDTtoPFX",
      "outputs": [
        {
          "internalType": "uint256",
          "name": "",
          "type": "uint256"
        }
      ],
      "stateMutability": "view",
      "type": "function",
      "constant": true
    },
    {
      "inputs": [],
      "name": "getPFXtomUSDT",
      "outputs": [
        {
          "internalType": "uint256",
          "name": "",
          "type": "uint256"
        }
      ],
      "stateMutability": "view",
      "type": "function",
      "constant": true
    },
    {
      "inputs": [],
      "name": "getUSDTfees",
      "outputs": [
        {
          "internalType": "uint256",
          "name": "",
          "type": "uint256"
        }
      ],
      "stateMutability": "view",
      "type": "function",
      "constant": true
    },
    {
      "inputs": [
        {
          "internalType": "uint256",
          "name": "_amount",
          "type": "uint256"
        }
      ],
      "name": "stakeTokens",
      "outputs": [],
      "stateMutability": "nonpayable",
      "type": "function"
    },
    {
      "inputs": [
        {
          "internalType": "uint256",
          "name": "_amount",
          "type": "uint256"
        }
      ],
      "name": "unstakeTokens",
      "outputs": [],
      "stateMutability": "nonpayable",
      "type": "function"
    },
    {
      "inputs": [
        {
          "internalType": "uint256",
          "name": "_amount",
          "type": "uint256"
        }
      ],
      "name": "withdrawTetherFromPool",
      "outputs": [],
      "stateMutability": "nonpayable",
      "type": "function"
    },
    {
      "inputs": [
        {
          "internalType": "uint256",
          "name": "_amount",
          "type": "uint256"
        }
      ],
      "name": "addTetherToPool",
      "outputs": [],
      "stateMutability": "nonpayable",
      "type": "function"
    },
    {
      "inputs": [
        {
          "internalType": "uint256",
          "name": "_amount",
          "type": "uint256"
        }
      ],
      "name": "transferTetherFromFeesToPool",
      "outputs": [],
      "stateMutability": "nonpayable",
      "type": "function"
    },
    {
      "inputs": [
        {
          "internalType": "uint256",
          "name": "_amount",
          "type": "uint256"
        }
      ],
      "name": "withdrawTetherFromFees",
      "outputs": [],
      "stateMutability": "nonpayable",
      "type": "function"
    }
  ],
  "bytecode": "0x60806040526040518060400160405280600e81526020017f4465706f7369742057616c6c6574000000000000000000000000000000000000815250600190805190602001906200005192919062000207565b506003600860006101000a81548160ff021916908360ff1602179055503480156200007b57600080fd5b5060405162001e6b38038062001e6b8339818101604052810190620000a19190620002e5565b336000806101000a81548173ffffffffffffffffffffffffffffffffffffffff021916908373ffffffffffffffffffffffffffffffffffffffff1602179055503373ffffffffffffffffffffffffffffffffffffffff16600073ffffffffffffffffffffffffffffffffffffffff167f8be0079c531659141344cd1fd0a4f28419497f9722a3daafe3b4186f6b6457e060405160405180910390a381600860016101000a81548173ffffffffffffffffffffffffffffffffffffffff021916908373ffffffffffffffffffffffffffffffffffffffff16021790555080600960006101000a81548173ffffffffffffffffffffffffffffffffffffffff021916908373ffffffffffffffffffffffffffffffffffffffff16021790555033600260006101000a81548173ffffffffffffffffffffffffffffffffffffffff021916908373ffffffffffffffffffffffffffffffffffffffff16021790555050506200041b565b828054620002159062000382565b90600052602060002090601f01602090048101928262000239576000855562000285565b82601f106200025457805160ff191683800117855562000285565b8280016001018555821562000285579182015b828111156200028457825182559160200191906001019062000267565b5b50905062000294919062000298565b5090565b5b80821115620002b357600081600090555060010162000299565b5090565b600081519050620002c881620003e7565b92915050565b600081519050620002df8162000401565b92915050565b60008060408385031215620002f957600080fd5b60006200030985828601620002b7565b92505060206200031c85828601620002ce565b9150509250929050565b6000620003338262000362565b9050919050565b6000620003478262000326565b9050919050565b60006200035b8262000326565b9050919050565b600073ffffffffffffffffffffffffffffffffffffffff82169050919050565b600060028204905060018216806200039b57607f821691505b60208210811415620003b257620003b1620003b8565b5b50919050565b7f4e487b7100000000000000000000000000000000000000000000000000000000600052602260045260246000fd5b620003f2816200033a565b8114620003fe57600080fd5b50565b6200040c816200034e565b81146200041857600080fd5b50565b611a40806200042b6000396000f3fe608060405234801561001057600080fd5b506004361061014d5760003560e01c80637547c7a3116100c3578063920455861161007c5780639204558614610344578063990d743214610362578063a7b7450414610380578063bd076e6b1461039e578063d85e62f7146103bc578063eff98843146103da5761014d565b80637547c7a31461029457806378ea2c50146102b05780637a2d5702146102ce5780638be8ca3f146102ec5780638da5cb5b146103085780638f32d59b146103265761014d565b80635cad259b116101155780635cad259b146101e2578063608e4dd01461020057806362425d681461021c57806365c4e65c1461023a5780636f19dd18146102585780636f368f95146102765761014d565b806306fdde0314610152578063078b1655146101705780630ce61b3b1461018c57806332b1ed2d146101a857806344fa8b6a146101c6575b600080fd5b61015a6103f8565b604051610167919061163f565b60405180910390f35b61018a600480360381019061018591906113bb565b610486565b005b6101a660048036038101906101a191906113bb565b61061b565b005b6101b06107ae565b6040516101bd91906116a1565b60405180910390f35b6101e060048036038101906101db91906113bb565b6107b8565b005b6101ea61094b565b6040516101f791906116a1565b60405180910390f35b61021a600480360381019061021591906113bb565b610955565b005b610224610b74565b60405161023191906116a1565b60405180910390f35b610242610b7a565b60405161024f91906116a1565b60405180910390f35b610260610b80565b60405161026d91906116a1565b60405180910390f35b61027e610b86565b60405161028b91906116a1565b60405180910390f35b6102ae60048036038101906102a991906113bb565b610b8c565b005b6102b8610eab565b6040516102c591906116a1565b60405180910390f35b6102d6610eb5565b6040516102e391906114f7565b60405180910390f35b610306600480360381019061030191906113bb565b610edb565b005b610310610fc7565b60405161031d91906114f7565b60405180910390f35b61032e610ff0565b60405161033b91906115ee565b60405180910390f35b61034c611047565b60405161035991906116a1565b60405180910390f35b61036a611051565b60405161037791906116a1565b60405180910390f35b610388611057565b6040516103959190611609565b60405180910390f35b6103a661107d565b6040516103b39190611624565b60405180910390f35b6103c46110a3565b6040516103d191906116a1565b60405180910390f35b6103e26110ad565b6040516103ef91906116bc565b60405180910390f35b600180546104059061190c565b80601f01602080910402602001604051908101604052809291908181526020018280546104319061190c565b801561047e5780601f106104535761010080835404028352916020019161047e565b820191906000526020600020905b81548152906001019060200180831161046157829003601f168201915b505050505081565b80600081116104ca576040517f08c379a00000000000000000000000000000000000000000000000000000000081526004016104c190611681565b60405180910390fd5b6104d2610ff0565b610511576040517f08c379a000000000000000000000000000000000000000000000000000000000815260040161050890611661565b60405180910390fd5b600960009054906101000a900473ffffffffffffffffffffffffffffffffffffffff1673ffffffffffffffffffffffffffffffffffffffff166323b872dd3330856040518463ffffffff1660e01b815260040161057093929190611512565b602060405180830381600087803b15801561058a57600080fd5b505af115801561059e573d6000803e3d6000fd5b505050506040513d601f19601f820116820180604052508101906105c29190611392565b506105cc826110c0565b6105d4611110565b6105dc611174565b7f9a425b202ac5c38886c504f48344e1c072823399a48ff2602e6815b39055a0fc33834260405161060f93929190611572565b60405180910390a15050565b806000811161065f576040517f08c379a000000000000000000000000000000000000000000000000000000000815260040161065690611681565b60405180910390fd5b610667610ff0565b6106a6576040517f08c379a000000000000000000000000000000000000000000000000000000000815260040161069d90611661565b60405180910390fd5b600960009054906101000a900473ffffffffffffffffffffffffffffffffffffffff1673ffffffffffffffffffffffffffffffffffffffff1663a9059cbb33846040518363ffffffff1660e01b8152600401610703929190611549565b602060405180830381600087803b15801561071d57600080fd5b505af1158015610731573d6000803e3d6000fd5b505050506040513d601f19601f820116820180604052508101906107559190611392565b5061075f826111d8565b610767611110565b61076f611174565b7f9fec94cb34a8104ea9f3015951308dd268ca8e22d58dce7aefc54ca7ef00c7473383426040516107a293929190611572565b60405180910390a15050565b6000600654905090565b80600081116107fc576040517f08c379a00000000000000000000000000000000000000000000000000000000081526004016107f390611681565b60405180910390fd5b610804610ff0565b610843576040517f08c379a000000000000000000000000000000000000000000000000000000000815260040161083a90611661565b60405180910390fd5b600960009054906101000a900473ffffffffffffffffffffffffffffffffffffffff1673ffffffffffffffffffffffffffffffffffffffff1663a9059cbb33846040518363ffffffff1660e01b81526004016108a0929190611549565b602060405180830381600087803b1580156108ba57600080fd5b505af11580156108ce573d6000803e3d6000fd5b505050506040513d601f19601f820116820180604052508101906108f29190611392565b506108fc82611228565b610904611110565b61090c611174565b7ffad5605a762668ba454466cc795dabe16a3df1a93e004db53cc793964f531c6533834260405161093f93929190611572565b60405180910390a15050565b6000600754905090565b8060008111610999576040517f08c379a000000000000000000000000000000000000000000000000000000000815260040161099090611681565b60405180910390fd5b6000670de0b6b3a7640000600654846109b2919061177a565b6109bc9190611749565b9050600860019054906101000a900473ffffffffffffffffffffffffffffffffffffffff1673ffffffffffffffffffffffffffffffffffffffff166323b872dd3330866040518463ffffffff1660e01b8152600401610a1d93929190611512565b602060405180830381600087803b158015610a3757600080fd5b505af1158015610a4b573d6000803e3d6000fd5b505050506040513d601f19601f82011682018060405250810190610a6f9190611392565b50600960009054906101000a900473ffffffffffffffffffffffffffffffffffffffff1673ffffffffffffffffffffffffffffffffffffffff1663a9059cbb33836040518363ffffffff1660e01b8152600401610acd929190611549565b602060405180830381600087803b158015610ae757600080fd5b505af1158015610afb573d6000803e3d6000fd5b505050506040513d601f19601f82011682018060405250810190610b1f9190611392565b50610b29816111d8565b610b3283611278565b7fbfb1c61a0c7ec3ab4b8757abf0d1e2b43f73a5e0e8e0892354bd7fb50ecbad1533848342604051610b6794939291906115a9565b60405180910390a1505050565b60035481565b60055481565b60065481565b60045481565b8060008111610bd0576040517f08c379a0000000000000000000000000000000000000000000000000000000008152600401610bc790611681565b60405180910390fd5b600960009054906101000a900473ffffffffffffffffffffffffffffffffffffffff1673ffffffffffffffffffffffffffffffffffffffff166323b872dd3330856040518463ffffffff1660e01b8152600401610c2f93929190611512565b602060405180830381600087803b158015610c4957600080fd5b505af1158015610c5d573d6000803e3d6000fd5b505050506040513d601f19601f82011682018060405250810190610c819190611392565b506000806005541415610ccb57606483600860009054906101000a900460ff166064610cad9190611808565b60ff16610cba919061177a565b610cc49190611749565b9050610d24565b670de0b6b3a7640000606460075485610ce4919061177a565b600860009054906101000a900460ff166064610d009190611808565b60ff16610d0d919061177a565b610d179190611749565b610d219190611749565b90505b600860019054906101000a900473ffffffffffffffffffffffffffffffffffffffff1673ffffffffffffffffffffffffffffffffffffffff1663a9059cbb33836040518363ffffffff1660e01b8152600401610d81929190611549565b602060405180830381600087803b158015610d9b57600080fd5b505af1158015610daf573d6000803e3d6000fd5b505050506040513d601f19601f82011682018060405250810190610dd39190611392565b50610ddd816112c8565b7fb4caaf29adda3eefee3ad552a8e85058589bf834c7466cae4ee58787f70589ed33848342604051610e1294939291906115a9565b60405180910390a16000606484600860009054906101000a900460ff166064610e3b9190611808565b60ff16610e48919061177a565b610e529190611749565b90506000606485600860009054906101000a900460ff1660ff16610e76919061177a565b610e809190611749565b9050610e8b826110c0565b610e9481611318565b610e9c611110565b610ea4611174565b5050505050565b6000600354905090565b600260009054906101000a900473ffffffffffffffffffffffffffffffffffffffff1681565b8060008111610f1f576040517f08c379a0000000000000000000000000000000000000000000000000000000008152600401610f1690611681565b60405180910390fd5b610f27610ff0565b610f66576040517f08c379a0000000000000000000000000000000000000000000000000000000008152600401610f5d90611661565b60405180910390fd5b610f6f82611228565b610f78826110c0565b610f80611110565b610f88611174565b7f636a30e8721929ccd3c1194ac13f4d532bbf8067e9125b58d16a8846f0248896338342604051610fbb93929190611572565b60405180910390a15050565b60008060009054906101000a900473ffffffffffffffffffffffffffffffffffffffff16905090565b60008060009054906101000a900473ffffffffffffffffffffffffffffffffffffffff1673ffffffffffffffffffffffffffffffffffffffff163373ffffffffffffffffffffffffffffffffffffffff1614905090565b6000600454905090565b60075481565b600860019054906101000a900473ffffffffffffffffffffffffffffffffffffffff1681565b600960009054906101000a900473ffffffffffffffffffffffffffffffffffffffff1681565b6000600554905090565b600860009054906101000a900460ff1681565b806003546110ce91906116f3565b6003819055507f5cccbbba04b79d809fde8dfe1abe8e7556605f9d9425ee6d6c1e9d423404af2f60035460405161110591906116a1565b60405180910390a150565b600554670de0b6b3a7640000600354611129919061177a565b6111339190611749565b6006819055507f07d869f143e2815c2147cf7f0c9432e2f712ceb44d9318fbdbf369d7d163a49d60065460405161116a91906116a1565b60405180910390a1565b600354670de0b6b3a764000060055461118d919061177a565b6111979190611749565b6007819055507f07d869f143e2815c2147cf7f0c9432e2f712ceb44d9318fbdbf369d7d163a49d6007546040516111ce91906116a1565b60405180910390a1565b806003546111e691906117d4565b6003819055507f5cccbbba04b79d809fde8dfe1abe8e7556605f9d9425ee6d6c1e9d423404af2f60035460405161121d91906116a1565b60405180910390a150565b8060045461123691906117d4565b6004819055507f96902ae94f43b66e9931047e47e228dc0324eaf25870b048850c28164498ad5e60045460405161126d91906116a1565b60405180910390a150565b8060055461128691906117d4565b6005819055507f7f1f98d1972a97323efe9018258ff7cb340cc82e016e91f9a3afd50575b7a9406005546040516112bd91906116a1565b60405180910390a150565b806005546112d691906116f3565b6005819055507f7f1f98d1972a97323efe9018258ff7cb340cc82e016e91f9a3afd50575b7a94060055460405161130d91906116a1565b60405180910390a150565b8060045461132691906116f3565b6004819055507f96902ae94f43b66e9931047e47e228dc0324eaf25870b048850c28164498ad5e60045460405161135d91906116a1565b60405180910390a150565b600081519050611377816119dc565b92915050565b60008135905061138c816119f3565b92915050565b6000602082840312156113a457600080fd5b60006113b284828501611368565b91505092915050565b6000602082840312156113cd57600080fd5b60006113db8482850161137d565b91505092915050565b6113ed8161183c565b82525050565b6113fc8161184e565b82525050565b61140b81611891565b82525050565b61141a816118b5565b82525050565b600061142b826116d7565b61143581856116e2565b93506114458185602086016118d9565b61144e816119cb565b840191505092915050565b60006114666020836116e2565b91507f4f776e61626c653a2063616c6c6572206973206e6f7420746865206f776e65726000830152602082019050919050565b60006114a66012836116e2565b91507f616d6f756e742063616e6e6f74206265203000000000000000000000000000006000830152602082019050919050565b6114e28161187a565b82525050565b6114f181611884565b82525050565b600060208201905061150c60008301846113e4565b92915050565b600060608201905061152760008301866113e4565b61153460208301856113e4565b61154160408301846114d9565b949350505050565b600060408201905061155e60008301856113e4565b61156b60208301846114d9565b9392505050565b600060608201905061158760008301866113e4565b61159460208301856114d9565b6115a160408301846114d9565b949350505050565b60006080820190506115be60008301876113e4565b6115cb60208301866114d9565b6115d860408301856114d9565b6115e560608301846114d9565b95945050505050565b600060208201905061160360008301846113f3565b92915050565b600060208201905061161e6000830184611402565b92915050565b60006020820190506116396000830184611411565b92915050565b600060208201905081810360008301526116598184611420565b905092915050565b6000602082019050818103600083015261167a81611459565b9050919050565b6000602082019050818103600083015261169a81611499565b9050919050565b60006020820190506116b660008301846114d9565b92915050565b60006020820190506116d160008301846114e8565b92915050565b600081519050919050565b600082825260208201905092915050565b60006116fe8261187a565b91506117098361187a565b9250827fffffffffffffffffffffffffffffffffffffffffffffffffffffffffffffffff0382111561173e5761173d61193e565b5b828201905092915050565b60006117548261187a565b915061175f8361187a565b92508261176f5761176e61196d565b5b828204905092915050565b60006117858261187a565b91506117908361187a565b9250817fffffffffffffffffffffffffffffffffffffffffffffffffffffffffffffffff04831182151516156117c9576117c861193e565b5b828202905092915050565b60006117df8261187a565b91506117ea8361187a565b9250828210156117fd576117fc61193e565b5b828203905092915050565b600061181382611884565b915061181e83611884565b9250828210156118315761183061193e565b5b828203905092915050565b60006118478261185a565b9050919050565b60008115159050919050565b600073ffffffffffffffffffffffffffffffffffffffff82169050919050565b6000819050919050565b600060ff82169050919050565b600061189c826118a3565b9050919050565b60006118ae8261185a565b9050919050565b60006118c0826118c7565b9050919050565b60006118d28261185a565b9050919050565b60005b838110156118f75780820151818401526020810190506118dc565b83811115611906576000848401525b50505050565b6000600282049050600182168061192457607f821691505b602082108114156119385761193761199c565b5b50919050565b7f4e487b7100000000000000000000000000000000000000000000000000000000600052601160045260246000fd5b7f4e487b7100000000000000000000000000000000000000000000000000000000600052601260045260246000fd5b7f4e487b7100000000000000000000000000000000000000000000000000000000600052602260045260246000fd5b6000601f19601f8301169050919050565b6119e58161184e565b81146119f057600080fd5b50565b6119fc8161187a565b8114611a0757600080fd5b5056fea2646970667358221220571d6bcddadae8d96c72cb5b6783d1083671856b5436fea86e27f0ed5e91b45864736f6c63430008000033",
  "immutableReferences": {},
  "source": "pragma solidity ^0.8.0;\r\n\r\nimport \"./PeceiptToken.sol\";\r\nimport \"./TetherToken.sol\";\r\nimport \"./Ownable.sol\";\r\nimport \"./CheckContract.sol\";\r\n\r\ncontract DepositWallet is CheckContract, Ownable{\r\n\r\n    // ---Contract Variables---\r\n    string public name = \"Deposit Wallet\";\r\n    address public ownerAdd;\r\n    uint256 public mUSDTpool;\r\n    uint256 public mUSDTfees;\r\n    uint256 public PFXincirculation;\r\n    uint256 public mUSDTtoPFX;\r\n    uint256 public PFXtomUSDT;\r\n    uint8 public stakingFee=3;\r\n\r\n\r\n\r\n    // ---Smart Contracts---\r\n    PeceiptToken public peceiptToken;\r\n    TetherToken public tetherToken;\r\n\r\n\r\n    // --- Pool Events ---\r\n    event mUSDTpoolUpdated(uint _mUSDTpool);\r\n    event mUSDTfeesUpdated(uint _mUSDTfees);\r\n    event PFXincirculationUpdated(uint _PFXincirculation);\r\n    event mUSDTtoPFXUpdated(uint _mUSDTtoPFX);\r\n    event PFXtomUSDTUpdated(uint _PFXtomUSDT);\r\n\r\n    // ---User Events---\r\n    event Staked(\r\n        address account,\r\n        uint tetherDeposited,\r\n        uint lpReceived,\r\n        uint timeStamp\r\n  );\r\n\r\n    event unStaked(\r\n        address account,\r\n        uint lpDeposited,\r\n        uint tetherReceived,\r\n        uint timeStamp\r\n  );\r\n    \r\n    //--- Owner Events---   \r\n    event withdrawFromPool(\r\n        address account,\r\n        uint tetherWithdrawn,\r\n        uint timeStamp\r\n  );\r\n    event addToPool(\r\n        address account,\r\n        uint tetherAdded,\r\n        uint timeStamp\r\n  );\r\n    event transferFromFeesToPool(\r\n        address account,\r\n        uint tetherTransferred,\r\n        uint timeStamp\r\n  );\r\n    event withdrawFromFees(\r\n        address account,\r\n        uint tetherWithdrawn,\r\n        uint timeStamp\r\n  );\r\n\r\n    // TODO add in only owner modifier and contract inheritance\r\n    // TODO mint and burn PFX or just set it to a lot from the start?\r\n    // constructor(PeceiptToken(type ie smart contract type ie PeceiptToken(sol)) _peceiptToken(address))\r\n    // TODO can just change the contract add of tethertoken here\r\n    constructor(PeceiptToken _peceiptToken, TetherToken _tetherToken) public {\r\n        peceiptToken=_peceiptToken;\r\n        tetherToken=_tetherToken;\r\n        ownerAdd=msg.sender;\r\n    }\r\n\r\n    // This isnt equal to the the contract's raw mUSDT balance - upon staking, some of the mUSDT will be deposited into fees segment.\r\n    // --- External View functions for the pool ---\r\n    function getUSDTpool() external view returns (uint) {\r\n        return mUSDTpool;\r\n    }\r\n    function getPFXincirculation() external view returns (uint) {\r\n        return PFXincirculation;\r\n    }\r\n    function getmUSDTtoPFX() external view returns (uint) {\r\n        return mUSDTtoPFX;\r\n    }\r\n    function getPFXtomUSDT() external view returns (uint) {\r\n        return PFXtomUSDT;\r\n    }\r\n    function getUSDTfees() external view returns (uint) {\r\n        return mUSDTfees;\r\n    }\r\n\r\n    modifier amountGT0 (uint _amount){\r\n        require(_amount > 0, \"amount cannot be 0\");\r\n        _;\r\n    }\r\n\r\n    // ---User Functions---\r\n    function stakeTokens(uint _amount) public amountGT0(_amount) {\r\n        \r\n        \r\n        // Transfer TetherTokens to this contract for staking\r\n        tetherToken.transferFrom(msg.sender, address(this), _amount);\r\n        \r\n        // starting the pool\r\n        uint shareofpool;\r\n        if (PFXincirculation==0){\r\n            shareofpool=((100-stakingFee)*_amount)/100;\r\n        }\r\n        else{\r\n            shareofpool=(((100-stakingFee)*(_amount*PFXtomUSDT))/100)/(10**18);\r\n        }\r\n\r\n        // transfer lp token to person and update PFXpool\r\n        peceiptToken.transfer(msg.sender, shareofpool);\r\n        addToPFXincirculation(shareofpool);\r\n        emit Staked(msg.sender, _amount, shareofpool, block.timestamp);\r\n\r\n        // update mUSDTpool and mUSDTfees\r\n        uint amountaddTomUSDTpool=((100-stakingFee)*_amount)/100;\r\n        uint amountaddTomUSDTfees=((stakingFee)*_amount)/100;\r\n        addTomUSDTpool(amountaddTomUSDTpool);\r\n        addTomUSDTfees(amountaddTomUSDTfees);\r\n\r\n        // update exchange rates TODO need this here?\r\n        updatemUSDTtoPFX();\r\n        updatePFXtomUSDT();\r\n\r\n    }\r\n\r\n    function unstakeTokens(uint _amount) public amountGT0(_amount){\r\n        \r\n        uint256 shareofpool=(_amount*mUSDTtoPFX)/(10**18);\r\n\r\n        // transfer lp Tokens back to this contract for staking\r\n        peceiptToken.transferFrom(msg.sender, address(this), _amount);\r\n        tetherToken.transfer(msg.sender, shareofpool);\r\n\r\n        // update pool info\r\n        deductFrommUSDTpool(shareofpool);\r\n        deductFromPFXincirculation(_amount);\r\n        emit unStaked(msg.sender, _amount, shareofpool, block.timestamp);\r\n        \r\n    }\r\n\r\n    // ---OnlyOwner Functions---\r\n    function withdrawTetherFromPool (uint _amount) public amountGT0(_amount) onlyOwner{\r\n        tetherToken.transfer(msg.sender, _amount);\r\n        deductFrommUSDTpool(_amount);\r\n        updatemUSDTtoPFX();\r\n        updatePFXtomUSDT();\r\n        emit withdrawFromPool(msg.sender, _amount, block.timestamp);\r\n    }\r\n\r\n    function addTetherToPool (uint _amount) public amountGT0(_amount) onlyOwner{\r\n        tetherToken.transferFrom(msg.sender,address(this), _amount);\r\n        addTomUSDTpool(_amount);\r\n        updatemUSDTtoPFX();\r\n        updatePFXtomUSDT();\r\n        emit addToPool(msg.sender, _amount, block.timestamp);\r\n    }\r\n\r\n    function transferTetherFromFeesToPool (uint _amount) public amountGT0(_amount) onlyOwner {\r\n\r\n        deductFrommUSDTfees(_amount);\r\n        addTomUSDTpool(_amount);\r\n        updatemUSDTtoPFX();\r\n        updatePFXtomUSDT();\r\n        emit transferFromFeesToPool(msg.sender, _amount, block.timestamp);\r\n    }\r\n    function withdrawTetherFromFees (uint _amount) public amountGT0(_amount) onlyOwner {\r\n\r\n        tetherToken.transfer(msg.sender, _amount);\r\n        deductFrommUSDTfees(_amount);\r\n        updatemUSDTtoPFX();\r\n        updatePFXtomUSDT();\r\n        emit withdrawFromFees(msg.sender, _amount, block.timestamp);\r\n    }\r\n\r\n\r\n    // --- Pool functionality ---\r\n    function addTomUSDTpool(uint _amount) private{\r\n        mUSDTpool=mUSDTpool+_amount;\r\n        emit mUSDTpoolUpdated(mUSDTpool);\r\n    }\r\n    function deductFrommUSDTpool(uint _amount) private{\r\n        mUSDTpool=mUSDTpool-_amount;\r\n        emit mUSDTpoolUpdated(mUSDTpool);\r\n    }\r\n    function addToPFXincirculation(uint _amount)private{\r\n        PFXincirculation=PFXincirculation+_amount;\r\n        emit PFXincirculationUpdated(PFXincirculation);\r\n    }\r\n    function deductFromPFXincirculation(uint _amount)private{\r\n        PFXincirculation=PFXincirculation-_amount;\r\n        emit PFXincirculationUpdated(PFXincirculation);\r\n    }\r\n    function addTomUSDTfees(uint _amount) private{\r\n        mUSDTfees=mUSDTfees+_amount;\r\n        emit mUSDTfeesUpdated(mUSDTfees);\r\n    }\r\n    function deductFrommUSDTfees(uint _amount) private{\r\n        mUSDTfees=mUSDTfees-_amount;\r\n        emit mUSDTfeesUpdated(mUSDTfees);\r\n    }\r\n    function updatemUSDTtoPFX() private {\r\n        mUSDTtoPFX=(mUSDTpool*10**18)/PFXincirculation;\r\n        emit mUSDTtoPFXUpdated(mUSDTtoPFX);\r\n    }\r\n    function updatePFXtomUSDT() private {\r\n        PFXtomUSDT=(PFXincirculation*10**18)/mUSDTpool;\r\n        emit mUSDTtoPFXUpdated(PFXtomUSDT);\r\n    }\r\n        \r\n}",
  "sourcePath": "C:\\Users\\richa\\Desktop\\FX_liquidity_Programme\\src\\contracts\\DepositWallet.sol",
  "compiler": {
    "name": "solc",
    "version": "0.8.0+commit.c7dfd78e.Emscripten.clang"
  },
  "schemaVersion": "3.4.3",
  "updatedAt": "2021-09-13T02:23:51.050Z",
  "networkType": "ethereum",
  "devdoc": {
    "kind": "dev",
    "methods": {
      "isOwner()": {
        "details": "Returns true if the caller is the current owner."
      },
      "owner()": {
        "details": "Returns the address of the current owner."
      }
    },
    "version": 1
  },
  "userdoc": {
    "kind": "user",
    "methods": {},
    "version": 1
  }
}