{
  "contractName": "PurseTokenUpgradable",
  "abi": [
    {
      "anonymous": false,
      "inputs": [
        {
          "indexed": false,
          "internalType": "address",
          "name": "previousAdmin",
          "type": "address"
        },
        {
          "indexed": false,
          "internalType": "address",
          "name": "newAdmin",
          "type": "address"
        }
      ],
      "name": "AdminChanged",
      "type": "event"
    },
    {
      "anonymous": false,
      "inputs": [
        {
          "indexed": true,
          "internalType": "address",
          "name": "_owner",
          "type": "address"
        },
        {
          "indexed": true,
          "internalType": "address",
          "name": "_spender",
          "type": "address"
        },
        {
          "indexed": false,
          "internalType": "uint256",
          "name": "_value",
          "type": "uint256"
        }
      ],
      "name": "Approval",
      "type": "event"
    },
    {
      "anonymous": false,
      "inputs": [
        {
          "indexed": true,
          "internalType": "address",
          "name": "beacon",
          "type": "address"
        }
      ],
      "name": "BeaconUpgraded",
      "type": "event"
    },
    {
      "anonymous": false,
      "inputs": [
        {
          "indexed": true,
          "internalType": "address",
          "name": "_from",
          "type": "address"
        },
        {
          "indexed": true,
          "internalType": "address",
          "name": "_to",
          "type": "address"
        },
        {
          "indexed": false,
          "internalType": "uint256",
          "name": "_value",
          "type": "uint256"
        }
      ],
      "name": "Burn",
      "type": "event"
    },
    {
      "anonymous": false,
      "inputs": [
        {
          "indexed": true,
          "internalType": "address",
          "name": "_from",
          "type": "address"
        },
        {
          "indexed": true,
          "internalType": "address",
          "name": "_to",
          "type": "address"
        },
        {
          "indexed": false,
          "internalType": "uint256",
          "name": "_value",
          "type": "uint256"
        }
      ],
      "name": "Mint",
      "type": "event"
    },
    {
      "anonymous": false,
      "inputs": [
        {
          "indexed": true,
          "internalType": "address",
          "name": "previousOwner",
          "type": "address"
        }
      ],
      "name": "OwnershipRenounced",
      "type": "event"
    },
    {
      "anonymous": false,
      "inputs": [
        {
          "indexed": true,
          "internalType": "address",
          "name": "previousOwner",
          "type": "address"
        },
        {
          "indexed": true,
          "internalType": "address",
          "name": "newOwner",
          "type": "address"
        }
      ],
      "name": "OwnershipTransferred",
      "type": "event"
    },
    {
      "anonymous": false,
      "inputs": [
        {
          "indexed": false,
          "internalType": "address",
          "name": "account",
          "type": "address"
        }
      ],
      "name": "Paused",
      "type": "event"
    },
    {
      "anonymous": false,
      "inputs": [
        {
          "indexed": true,
          "internalType": "address",
          "name": "_from",
          "type": "address"
        },
        {
          "indexed": true,
          "internalType": "address",
          "name": "_to",
          "type": "address"
        },
        {
          "indexed": false,
          "internalType": "uint256",
          "name": "_value",
          "type": "uint256"
        }
      ],
      "name": "Transfer",
      "type": "event"
    },
    {
      "anonymous": false,
      "inputs": [
        {
          "indexed": false,
          "internalType": "address",
          "name": "account",
          "type": "address"
        }
      ],
      "name": "Unpaused",
      "type": "event"
    },
    {
      "anonymous": false,
      "inputs": [
        {
          "indexed": true,
          "internalType": "address",
          "name": "implementation",
          "type": "address"
        }
      ],
      "name": "Upgraded",
      "type": "event"
    },
    {
      "inputs": [
        {
          "internalType": "uint256",
          "name": "",
          "type": "uint256"
        }
      ],
      "name": "admins",
      "outputs": [
        {
          "internalType": "address",
          "name": "",
          "type": "address"
        }
      ],
      "stateMutability": "view",
      "type": "function",
      "constant": true
    },
    {
      "inputs": [
        {
          "internalType": "address",
          "name": "",
          "type": "address"
        },
        {
          "internalType": "address",
          "name": "",
          "type": "address"
        }
      ],
      "name": "allowance",
      "outputs": [
        {
          "internalType": "uint256",
          "name": "",
          "type": "uint256"
        }
      ],
      "stateMutability": "view",
      "type": "function",
      "constant": true
    },
    {
      "inputs": [
        {
          "internalType": "address",
          "name": "",
          "type": "address"
        }
      ],
      "name": "balanceOf",
      "outputs": [
        {
          "internalType": "uint256",
          "name": "",
          "type": "uint256"
        }
      ],
      "stateMutability": "view",
      "type": "function",
      "constant": true
    },
    {
      "inputs": [],
      "name": "burnPercent",
      "outputs": [
        {
          "internalType": "uint256",
          "name": "",
          "type": "uint256"
        }
      ],
      "stateMutability": "view",
      "type": "function",
      "constant": true
    },
    {
      "inputs": [],
      "name": "decimals",
      "outputs": [
        {
          "internalType": "uint8",
          "name": "",
          "type": "uint8"
        }
      ],
      "stateMutability": "view",
      "type": "function",
      "constant": true
    },
    {
      "inputs": [],
      "name": "disPercent",
      "outputs": [
        {
          "internalType": "uint256",
          "name": "",
          "type": "uint256"
        }
      ],
      "stateMutability": "view",
      "type": "function",
      "constant": true
    },
    {
      "inputs": [],
      "name": "disPool",
      "outputs": [
        {
          "internalType": "address",
          "name": "",
          "type": "address"
        }
      ],
      "stateMutability": "view",
      "type": "function",
      "constant": true
    },
    {
      "inputs": [
        {
          "internalType": "address",
          "name": "",
          "type": "address"
        }
      ],
      "name": "isAdmin",
      "outputs": [
        {
          "internalType": "bool",
          "name": "",
          "type": "bool"
        }
      ],
      "stateMutability": "view",
      "type": "function",
      "constant": true
    },
    {
      "inputs": [
        {
          "internalType": "address",
          "name": "",
          "type": "address"
        }
      ],
      "name": "isWhitelistedFrom",
      "outputs": [
        {
          "internalType": "bool",
          "name": "",
          "type": "bool"
        }
      ],
      "stateMutability": "view",
      "type": "function",
      "constant": true
    },
    {
      "inputs": [
        {
          "internalType": "address",
          "name": "",
          "type": "address"
        }
      ],
      "name": "isWhitelistedTo",
      "outputs": [
        {
          "internalType": "bool",
          "name": "",
          "type": "bool"
        }
      ],
      "stateMutability": "view",
      "type": "function",
      "constant": true
    },
    {
      "inputs": [],
      "name": "liqPercent",
      "outputs": [
        {
          "internalType": "uint256",
          "name": "",
          "type": "uint256"
        }
      ],
      "stateMutability": "view",
      "type": "function",
      "constant": true
    },
    {
      "inputs": [],
      "name": "liqPool",
      "outputs": [
        {
          "internalType": "address",
          "name": "",
          "type": "address"
        }
      ],
      "stateMutability": "view",
      "type": "function",
      "constant": true
    },
    {
      "inputs": [],
      "name": "mintIndex",
      "outputs": [
        {
          "internalType": "uint256",
          "name": "",
          "type": "uint256"
        }
      ],
      "stateMutability": "view",
      "type": "function",
      "constant": true
    },
    {
      "inputs": [],
      "name": "name",
      "outputs": [
        {
          "internalType": "string",
          "name": "",
          "type": "string"
        }
      ],
      "stateMutability": "view",
      "type": "function",
      "constant": true
    },
    {
      "inputs": [],
      "name": "owner",
      "outputs": [
        {
          "internalType": "address",
          "name": "",
          "type": "address"
        }
      ],
      "stateMutability": "view",
      "type": "function",
      "constant": true
    },
    {
      "inputs": [],
      "name": "paused",
      "outputs": [
        {
          "internalType": "bool",
          "name": "",
          "type": "bool"
        }
      ],
      "stateMutability": "view",
      "type": "function",
      "constant": true
    },
    {
      "inputs": [],
      "name": "symbol",
      "outputs": [
        {
          "internalType": "string",
          "name": "",
          "type": "string"
        }
      ],
      "stateMutability": "view",
      "type": "function",
      "constant": true
    },
    {
      "inputs": [],
      "name": "totalSupply",
      "outputs": [
        {
          "internalType": "uint256",
          "name": "",
          "type": "uint256"
        }
      ],
      "stateMutability": "view",
      "type": "function",
      "constant": true
    },
    {
      "inputs": [
        {
          "internalType": "address",
          "name": "newImplementation",
          "type": "address"
        }
      ],
      "name": "upgradeTo",
      "outputs": [],
      "stateMutability": "nonpayable",
      "type": "function"
    },
    {
      "inputs": [
        {
          "internalType": "address",
          "name": "newImplementation",
          "type": "address"
        },
        {
          "internalType": "bytes",
          "name": "data",
          "type": "bytes"
        }
      ],
      "name": "upgradeToAndCall",
      "outputs": [],
      "stateMutability": "payable",
      "type": "function",
      "payable": true
    },
    {
      "inputs": [
        {
          "internalType": "address",
          "name": "_owner",
          "type": "address"
        }
      ],
      "name": "transferOwnership",
      "outputs": [],
      "stateMutability": "nonpayable",
      "type": "function"
    },
    {
      "inputs": [],
      "name": "renounceOwnership",
      "outputs": [],
      "stateMutability": "nonpayable",
      "type": "function"
    },
    {
      "inputs": [
        {
          "internalType": "address",
          "name": "newWhitelist",
          "type": "address"
        }
      ],
      "name": "setWhitelistedTo",
      "outputs": [],
      "stateMutability": "nonpayable",
      "type": "function"
    },
    {
      "inputs": [
        {
          "internalType": "address",
          "name": "newWhitelist",
          "type": "address"
        }
      ],
      "name": "removeWhitelistedTo",
      "outputs": [],
      "stateMutability": "nonpayable",
      "type": "function"
    },
    {
      "inputs": [
        {
          "internalType": "address",
          "name": "newWhitelist",
          "type": "address"
        }
      ],
      "name": "setWhitelistedFrom",
      "outputs": [],
      "stateMutability": "nonpayable",
      "type": "function"
    },
    {
      "inputs": [
        {
          "internalType": "address",
          "name": "newWhitelist",
          "type": "address"
        }
      ],
      "name": "removeWhitelistedFrom",
      "outputs": [],
      "stateMutability": "nonpayable",
      "type": "function"
    },
    {
      "inputs": [
        {
          "internalType": "address",
          "name": "_to",
          "type": "address"
        },
        {
          "internalType": "uint256",
          "name": "_value",
          "type": "uint256"
        }
      ],
      "name": "transfer",
      "outputs": [
        {
          "internalType": "bool",
          "name": "success",
          "type": "bool"
        }
      ],
      "stateMutability": "nonpayable",
      "type": "function"
    },
    {
      "inputs": [
        {
          "internalType": "address",
          "name": "_spender",
          "type": "address"
        },
        {
          "internalType": "uint256",
          "name": "_value",
          "type": "uint256"
        }
      ],
      "name": "approve",
      "outputs": [
        {
          "internalType": "bool",
          "name": "success",
          "type": "bool"
        }
      ],
      "stateMutability": "nonpayable",
      "type": "function"
    },
    {
      "inputs": [
        {
          "internalType": "address",
          "name": "_from",
          "type": "address"
        },
        {
          "internalType": "address",
          "name": "_to",
          "type": "address"
        },
        {
          "internalType": "uint256",
          "name": "_value",
          "type": "uint256"
        }
      ],
      "name": "transferFrom",
      "outputs": [
        {
          "internalType": "bool",
          "name": "success",
          "type": "bool"
        }
      ],
      "stateMutability": "nonpayable",
      "type": "function"
    },
    {
      "inputs": [
        {
          "internalType": "address",
          "name": "_account",
          "type": "address"
        },
        {
          "internalType": "uint256",
          "name": "_amount",
          "type": "uint256"
        }
      ],
      "name": "mint",
      "outputs": [],
      "stateMutability": "nonpayable",
      "type": "function"
    },
    {
      "inputs": [
        {
          "internalType": "address",
          "name": "_account",
          "type": "address"
        },
        {
          "internalType": "uint256",
          "name": "_amount",
          "type": "uint256"
        }
      ],
      "name": "burn",
      "outputs": [],
      "stateMutability": "nonpayable",
      "type": "function"
    },
    {
      "inputs": [
        {
          "internalType": "address",
          "name": "_newLPool",
          "type": "address"
        }
      ],
      "name": "updateLPoolAdd",
      "outputs": [],
      "stateMutability": "nonpayable",
      "type": "function"
    },
    {
      "inputs": [
        {
          "internalType": "address",
          "name": "_newRPool",
          "type": "address"
        }
      ],
      "name": "updateRPoolAdd",
      "outputs": [],
      "stateMutability": "nonpayable",
      "type": "function"
    },
    {
      "inputs": [
        {
          "internalType": "uint256",
          "name": "_newBurnPercent",
          "type": "uint256"
        }
      ],
      "name": "updateBurnPercent",
      "outputs": [],
      "stateMutability": "nonpayable",
      "type": "function"
    },
    {
      "inputs": [
        {
          "internalType": "uint256",
          "name": "_newLiqPercent",
          "type": "uint256"
        }
      ],
      "name": "updateLiqPercent",
      "outputs": [],
      "stateMutability": "nonpayable",
      "type": "function"
    },
    {
      "inputs": [
        {
          "internalType": "uint256",
          "name": "_newDisPercent",
          "type": "uint256"
        }
      ],
      "name": "updateDisPercent",
      "outputs": [],
      "stateMutability": "nonpayable",
      "type": "function"
    },
    {
      "inputs": [
        {
          "internalType": "address",
          "name": "newAdmin",
          "type": "address"
        }
      ],
      "name": "addAdmin",
      "outputs": [],
      "stateMutability": "nonpayable",
      "type": "function"
    },
    {
      "inputs": [
        {
          "internalType": "uint256",
          "name": "index",
          "type": "uint256"
        }
      ],
      "name": "removeAdmin",
      "outputs": [
        {
          "internalType": "address[]",
          "name": "",
          "type": "address[]"
        }
      ],
      "stateMutability": "nonpayable",
      "type": "function"
    },
    {
      "inputs": [],
      "name": "getAdmins",
      "outputs": [
        {
          "internalType": "address[]",
          "name": "",
          "type": "address[]"
        }
      ],
      "stateMutability": "view",
      "type": "function",
      "constant": true
    },
    {
      "inputs": [
        {
          "internalType": "address",
          "name": "token",
          "type": "address"
        },
        {
          "internalType": "uint256",
          "name": "amount",
          "type": "uint256"
        },
        {
          "internalType": "address",
          "name": "_to",
          "type": "address"
        }
      ],
      "name": "returnAnyToken",
      "outputs": [],
      "stateMutability": "nonpayable",
      "type": "function"
    },
    {
      "inputs": [],
      "name": "pause",
      "outputs": [],
      "stateMutability": "nonpayable",
      "type": "function"
    },
    {
      "inputs": [],
      "name": "unpause",
      "outputs": [],
      "stateMutability": "nonpayable",
      "type": "function"
    },
    {
      "inputs": [
        {
          "internalType": "address",
          "name": "_to",
          "type": "address"
        },
        {
          "internalType": "address",
          "name": "_lPool",
          "type": "address"
        },
        {
          "internalType": "address",
          "name": "_rPool",
          "type": "address"
        },
        {
          "internalType": "uint256",
          "name": "_burnPercent",
          "type": "uint256"
        },
        {
          "internalType": "uint256",
          "name": "_liqPercent",
          "type": "uint256"
        },
        {
          "internalType": "uint256",
          "name": "_disPercent",
          "type": "uint256"
        }
      ],
      "name": "initialize",
      "outputs": [],
      "stateMutability": "nonpayable",
      "type": "function"
    }
  ],
  "bytecode": "0x608060405234801561001057600080fd5b506158e380620000216000396000f3fe60806040526004361061025c5760003560e01c806367e76d53116101445780639dc29fac116100b6578063ca04d2d81161007a578063ca04d2d8146108c3578063dd62ed3e14610900578063e2657da11461093d578063f2fde38b14610966578063f74f9bfd1461098f578063f7567244146109ba5761025c565b80639dc29fac146107cc578063a9059cbb146107f5578063ad7bbc2914610832578063c237e3261461086f578063c6ef9246146108985761025c565b8063728cdbca11610108578063728cdbca146106e2578063740b91f41461070b5780638456cb59146107365780638aa4ef2c1461074d5780638da5cb5b1461077657806395d89b41146107a15761025c565b806367e76d5314610613578063704802751461063c57806370a0823114610665578063715018a6146106a2578063726f0133146106b95761025c565b806335e8b82e116101dd57806340c10f19116101a157806340c10f19146105125780634d28b4ba1461053b5780634f1ef286146105645780635422e495146105805780635b014029146105ab5780635c975abb146105e85761025c565b806335e8b82e146104575780633659cfe6146104805780633838d4e3146104a957806338999328146104d25780633f4ba83a146104fb5761025c565b806323b872dd1161022457806323b872dd1461035c57806324d7806c1461039957806327ba6e11146103d6578063313ce5671461040157806331ae450b1461042c5761025c565b806303807ee51461026157806306fdde031461028c578063095ea7b3146102b757806314bfd6d0146102f457806318160ddd14610331575b600080fd5b34801561026d57600080fd5b506102766109e3565b60405161028391906151ca565b60405180910390f35b34801561029857600080fd5b506102a16109e9565b6040516102ae9190615048565b60405180910390f35b3480156102c357600080fd5b506102de60048036038101906102d99190614c27565b610a77565b6040516102eb919061502d565b60405180910390f35b34801561030057600080fd5b5061031b60048036038101906103169190614cdb565b610bb1565b6040516103289190614fc7565b60405180910390f35b34801561033d57600080fd5b50610346610bf0565b60405161035391906151ca565b60405180910390f35b34801561036857600080fd5b50610383600480360381019061037e9190614b84565b610bf6565b604051610390919061502d565b60405180910390f35b3480156103a557600080fd5b506103c060048036038101906103bb9190614a96565b611135565b6040516103cd919061502d565b60405180910390f35b3480156103e257600080fd5b506103eb611155565b6040516103f89190614fc7565b60405180910390f35b34801561040d57600080fd5b5061041661117b565b60405161042391906151e5565b60405180910390f35b34801561043857600080fd5b5061044161118e565b60405161044e919061500b565b60405180910390f35b34801561046357600080fd5b5061047e60048036038101906104799190614a96565b61121c565b005b34801561048c57600080fd5b506104a760048036038101906104a29190614a96565b611385565b005b3480156104b557600080fd5b506104d060048036038101906104cb9190614a96565b6113ac565b005b3480156104de57600080fd5b506104f960048036038101906104f49190614cdb565b611528565b005b34801561050757600080fd5b506105106115ec565b005b34801561051e57600080fd5b5061053960048036038101906105349190614c27565b6116cd565b005b34801561054757600080fd5b50610562600480360381019061055d9190614a96565b6118b4565b005b61057e60048036038101906105799190614bd3565b611a2f565b005b34801561058c57600080fd5b50610595611a48565b6040516105a291906151ca565b60405180910390f35b3480156105b757600080fd5b506105d260048036038101906105cd9190614a96565b611a4e565b6040516105df919061502d565b60405180910390f35b3480156105f457600080fd5b506105fd611a6e565b60405161060a919061502d565b60405180910390f35b34801561061f57600080fd5b5061063a60048036038101906106359190614a96565b611a85565b005b34801561064857600080fd5b50610663600480360381019061065e9190614a96565b611bee565b005b34801561067157600080fd5b5061068c60048036038101906106879190614a96565b611dcd565b60405161069991906151ca565b60405180910390f35b3480156106ae57600080fd5b506106b7611de5565b005b3480156106c557600080fd5b506106e060048036038101906106db9190614cdb565b611f1e565b005b3480156106ee57600080fd5b5061070960048036038101906107049190614afb565b611fe2565b005b34801561071757600080fd5b50610720612419565b60405161072d9190614fc7565b60405180910390f35b34801561074257600080fd5b5061074b61243f565b005b34801561075957600080fd5b50610774600480360381019061076f9190614cdb565b612521565b005b34801561078257600080fd5b5061078b6125e5565b6040516107989190614fc7565b60405180910390f35b3480156107ad57600080fd5b506107b661260b565b6040516107c39190615048565b60405180910390f35b3480156107d857600080fd5b506107f360048036038101906107ee9190614c27565b612699565b005b34801561080157600080fd5b5061081c60048036038101906108179190614c27565b6128d2565b604051610829919061502d565b60405180910390f35b34801561083e57600080fd5b5061085960048036038101906108549190614cdb565b612c61565b604051610866919061500b565b60405180910390f35b34801561087b57600080fd5b5061089660048036038101906108919190614c63565b613077565b005b3480156108a457600080fd5b506108ad61320a565b6040516108ba91906151ca565b60405180910390f35b3480156108cf57600080fd5b506108ea60048036038101906108e59190614a96565b613210565b6040516108f7919061502d565b60405180910390f35b34801561090c57600080fd5b5061092760048036038101906109229190614abf565b613230565b60405161093491906151ca565b60405180910390f35b34801561094957600080fd5b50610964600480360381019061095f9190614a96565b613255565b005b34801561097257600080fd5b5061098d60048036038101906109889190614a96565b6133d0565b005b34801561099b57600080fd5b506109a4613621565b6040516109b191906151ca565b60405180910390f35b3480156109c657600080fd5b506109e160048036038101906109dc9190614a96565b613627565b005b60d35481565b60c980546109f69061546d565b80601f0160208091040260200160405190810160405280929190818152602001828054610a229061546d565b8015610a6f5780601f10610a4457610100808354040283529160200191610a6f565b820191906000526020600020905b815481529060010190602001808311610a5257829003601f168201915b505050505081565b6000610a81611a6e565b15610ac1576040517f08c379a0000000000000000000000000000000000000000000000000000000008152600401610ab8906150ca565b60405180910390fd5b8160d760003373ffffffffffffffffffffffffffffffffffffffff1673ffffffffffffffffffffffffffffffffffffffff16815260200190815260200160002060008573ffffffffffffffffffffffffffffffffffffffff1673ffffffffffffffffffffffffffffffffffffffff168152602001908152602001600020819055508273ffffffffffffffffffffffffffffffffffffffff163373ffffffffffffffffffffffffffffffffffffffff167f8c5be1e5ebec7d5bd14f71427d1e84f3dd0314c0f7b2291e5b200ac8c7c3b92584604051610b9f91906151ca565b60405180910390a36001905092915050565b60cf8181548110610bc157600080fd5b906000526020600020016000915054906101000a900473ffffffffffffffffffffffffffffffffffffffff1681565b60cb5481565b6000610c00611a6e565b15610c40576040517f08c379a0000000000000000000000000000000000000000000000000000000008152600401610c37906150ca565b60405180910390fd5b6000821015610c4e57600080fd5b60d660008573ffffffffffffffffffffffffffffffffffffffff1673ffffffffffffffffffffffffffffffffffffffff16815260200190815260200160002054821115610c9a57600080fd5b60d760008573ffffffffffffffffffffffffffffffffffffffff1673ffffffffffffffffffffffffffffffffffffffff16815260200190815260200160002060003373ffffffffffffffffffffffffffffffffffffffff1673ffffffffffffffffffffffffffffffffffffffff16815260200190815260200160002054821115610d2357600080fd5b60d960008473ffffffffffffffffffffffffffffffffffffffff1673ffffffffffffffffffffffffffffffffffffffff16815260200190815260200160002060009054906101000a900460ff1680610dc4575060da60003373ffffffffffffffffffffffffffffffffffffffff1673ffffffffffffffffffffffffffffffffffffffff16815260200190815260200160002060009054906101000a900460ff165b15610f76578160d760008673ffffffffffffffffffffffffffffffffffffffff1673ffffffffffffffffffffffffffffffffffffffff16815260200190815260200160002060003373ffffffffffffffffffffffffffffffffffffffff1673ffffffffffffffffffffffffffffffffffffffff1681526020019081526020016000206000828254610e5591906153a2565b925050819055508160d660008673ffffffffffffffffffffffffffffffffffffffff1673ffffffffffffffffffffffffffffffffffffffff1681526020019081526020016000206000828254610eab91906153a2565b925050819055508160d660008573ffffffffffffffffffffffffffffffffffffffff1673ffffffffffffffffffffffffffffffffffffffff1681526020019081526020016000206000828254610f0191906152c1565b925050819055508273ffffffffffffffffffffffffffffffffffffffff168473ffffffffffffffffffffffffffffffffffffffff167fddf252ad1be2c89b69c2b068fc378daa952ba7f163c4a11628f55a4df523b3ef84604051610f6591906151ca565b60405180910390a36001905061112e565b8160d760008673ffffffffffffffffffffffffffffffffffffffff1673ffffffffffffffffffffffffffffffffffffffff16815260200190815260200160002060003373ffffffffffffffffffffffffffffffffffffffff1673ffffffffffffffffffffffffffffffffffffffff168152602001908152602001600020600082825461100291906153a2565b92505081905550600061101583866137a3565b90508060d660008773ffffffffffffffffffffffffffffffffffffffff1673ffffffffffffffffffffffffffffffffffffffff168152602001908152602001600020600082825461106691906153a2565b925050819055508060d660008673ffffffffffffffffffffffffffffffffffffffff1673ffffffffffffffffffffffffffffffffffffffff16815260200190815260200160002060008282546110bc91906152c1565b925050819055508373ffffffffffffffffffffffffffffffffffffffff168573ffffffffffffffffffffffffffffffffffffffff167fddf252ad1be2c89b69c2b068fc378daa952ba7f163c4a11628f55a4df523b3ef8360405161112091906151ca565b60405180910390a360019150505b9392505050565b60d86020528060005260406000206000915054906101000a900460ff1681565b60d160009054906101000a900473ffffffffffffffffffffffffffffffffffffffff1681565b60cc60009054906101000a900460ff1681565b606060cf80548060200260200160405190810160405280929190818152602001828054801561121257602002820191906000526020600020905b8160009054906101000a900473ffffffffffffffffffffffffffffffffffffffff1673ffffffffffffffffffffffffffffffffffffffff16815260200190600101908083116111c8575b5050505050905090565b60ce60009054906101000a900473ffffffffffffffffffffffffffffffffffffffff1673ffffffffffffffffffffffffffffffffffffffff163373ffffffffffffffffffffffffffffffffffffffff16146112ac576040517f08c379a00000000000000000000000000000000000000000000000000000000081526004016112a3906151aa565b60405180910390fd5b600073ffffffffffffffffffffffffffffffffffffffff168173ffffffffffffffffffffffffffffffffffffffff1614156112e657600080fd5b60d060009054906101000a900473ffffffffffffffffffffffffffffffffffffffff1673ffffffffffffffffffffffffffffffffffffffff168173ffffffffffffffffffffffffffffffffffffffff16141561134157600080fd5b8060d060006101000a81548173ffffffffffffffffffffffffffffffffffffffff021916908373ffffffffffffffffffffffffffffffffffffffff16021790555050565b61138e81613824565b6113a9816040518060200160405280600081525060006138b7565b50565b60ce60009054906101000a900473ffffffffffffffffffffffffffffffffffffffff1673ffffffffffffffffffffffffffffffffffffffff163373ffffffffffffffffffffffffffffffffffffffff161461143c576040517f08c379a0000000000000000000000000000000000000000000000000000000008152600401611433906151aa565b60405180910390fd5b600073ffffffffffffffffffffffffffffffffffffffff168173ffffffffffffffffffffffffffffffffffffffff16141561147657600080fd5b60da60008273ffffffffffffffffffffffffffffffffffffffff1673ffffffffffffffffffffffffffffffffffffffff16815260200190815260200160002060009054906101000a900460ff16156114cd57600080fd5b600160da60008373ffffffffffffffffffffffffffffffffffffffff1673ffffffffffffffffffffffffffffffffffffffff16815260200190815260200160002060006101000a81548160ff02191690831515021790555050565b60ce60009054906101000a900473ffffffffffffffffffffffffffffffffffffffff1673ffffffffffffffffffffffffffffffffffffffff163373ffffffffffffffffffffffffffffffffffffffff16146115b8576040517f08c379a00000000000000000000000000000000000000000000000000000000081526004016115af906151aa565b60405180910390fd5b600081101580156115ca575060648111155b6115d357600080fd5b60d3548114156115e257600080fd5b8060d38190555050565b6115f4611a6e565b611633576040517f08c379a000000000000000000000000000000000000000000000000000000000815260040161162a9061506a565b60405180910390fd5b60ce60009054906101000a900473ffffffffffffffffffffffffffffffffffffffff1673ffffffffffffffffffffffffffffffffffffffff163373ffffffffffffffffffffffffffffffffffffffff16146116c3576040517f08c379a00000000000000000000000000000000000000000000000000000000081526004016116ba906151aa565b60405180910390fd5b6116cb613a88565b565b6116d5611a6e565b15611715576040517f08c379a000000000000000000000000000000000000000000000000000000000815260040161170c906150ca565b60405180910390fd5b60d860003373ffffffffffffffffffffffffffffffffffffffff1673ffffffffffffffffffffffffffffffffffffffff16815260200190815260200160002060009054906101000a900460ff166117a1576040517f08c379a00000000000000000000000000000000000000000000000000000000081526004016117989061518a565b60405180910390fd5b600073ffffffffffffffffffffffffffffffffffffffff168273ffffffffffffffffffffffffffffffffffffffff1614156117db57600080fd5b8060d660008473ffffffffffffffffffffffffffffffffffffffff1673ffffffffffffffffffffffffffffffffffffffff168152602001908152602001600020600082825461182a91906152c1565b925050819055508060cb600082825461184391906152c1565b925050819055508173ffffffffffffffffffffffffffffffffffffffff16600073ffffffffffffffffffffffffffffffffffffffff167fab8530f87dc9b59234c4623bf917212bb2536d647574c8e7e5da92c2ede0c9f8836040516118a891906151ca565b60405180910390a35050565b60ce60009054906101000a900473ffffffffffffffffffffffffffffffffffffffff1673ffffffffffffffffffffffffffffffffffffffff163373ffffffffffffffffffffffffffffffffffffffff1614611944576040517f08c379a000000000000000000000000000000000000000000000000000000000815260040161193b906151aa565b60405180910390fd5b600073ffffffffffffffffffffffffffffffffffffffff168173ffffffffffffffffffffffffffffffffffffffff16141561197e57600080fd5b60da60008273ffffffffffffffffffffffffffffffffffffffff1673ffffffffffffffffffffffffffffffffffffffff16815260200190815260200160002060009054906101000a900460ff166119d457600080fd5b600060da60008373ffffffffffffffffffffffffffffffffffffffff1673ffffffffffffffffffffffffffffffffffffffff16815260200190815260200160002060006101000a81548160ff02191690831515021790555050565b611a3882613824565b611a44828260016138b7565b5050565b60d45481565b60d96020528060005260406000206000915054906101000a900460ff1681565b6000609760009054906101000a900460ff16905090565b60ce60009054906101000a900473ffffffffffffffffffffffffffffffffffffffff1673ffffffffffffffffffffffffffffffffffffffff163373ffffffffffffffffffffffffffffffffffffffff1614611b15576040517f08c379a0000000000000000000000000000000000000000000000000000000008152600401611b0c906151aa565b60405180910390fd5b600073ffffffffffffffffffffffffffffffffffffffff168173ffffffffffffffffffffffffffffffffffffffff161415611b4f57600080fd5b60d160009054906101000a900473ffffffffffffffffffffffffffffffffffffffff1673ffffffffffffffffffffffffffffffffffffffff168173ffffffffffffffffffffffffffffffffffffffff161415611baa57600080fd5b8060d160006101000a81548173ffffffffffffffffffffffffffffffffffffffff021916908373ffffffffffffffffffffffffffffffffffffffff16021790555050565b60ce60009054906101000a900473ffffffffffffffffffffffffffffffffffffffff1673ffffffffffffffffffffffffffffffffffffffff163373ffffffffffffffffffffffffffffffffffffffff1614611c7e576040517f08c379a0000000000000000000000000000000000000000000000000000000008152600401611c75906151aa565b60405180910390fd5b600073ffffffffffffffffffffffffffffffffffffffff168173ffffffffffffffffffffffffffffffffffffffff161415611cb857600080fd5b60d860008273ffffffffffffffffffffffffffffffffffffffff1673ffffffffffffffffffffffffffffffffffffffff16815260200190815260200160002060009054906101000a900460ff1615611d0f57600080fd5b600160d860008373ffffffffffffffffffffffffffffffffffffffff1673ffffffffffffffffffffffffffffffffffffffff16815260200190815260200160002060006101000a81548160ff02191690831515021790555060cf819080600181540180825580915050600190039060005260206000200160009091909190916101000a81548173ffffffffffffffffffffffffffffffffffffffff021916908373ffffffffffffffffffffffffffffffffffffffff16021790555050565b60d66020528060005260406000206000915090505481565b60ce60009054906101000a900473ffffffffffffffffffffffffffffffffffffffff1673ffffffffffffffffffffffffffffffffffffffff163373ffffffffffffffffffffffffffffffffffffffff1614611e75576040517f08c379a0000000000000000000000000000000000000000000000000000000008152600401611e6c906151aa565b60405180910390fd5b60ce60009054906101000a900473ffffffffffffffffffffffffffffffffffffffff1673ffffffffffffffffffffffffffffffffffffffff167ff8df31144d9c2f0f6b59d69b8b98abd5459d07f2742c4df920b25aae33c6482060405160405180910390a2600060ce60006101000a81548173ffffffffffffffffffffffffffffffffffffffff021916908373ffffffffffffffffffffffffffffffffffffffff160217905550565b60ce60009054906101000a900473ffffffffffffffffffffffffffffffffffffffff1673ffffffffffffffffffffffffffffffffffffffff163373ffffffffffffffffffffffffffffffffffffffff1614611fae576040517f08c379a0000000000000000000000000000000000000000000000000000000008152600401611fa5906151aa565b60405180910390fd5b60008110158015611fc0575060648111155b611fc957600080fd5b60d554811415611fd857600080fd5b8060d58190555050565b600060019054906101000a900460ff1680612008575060008054906101000a900460ff16155b612047576040517f08c379a000000000000000000000000000000000000000000000000000000000815260040161203e906150ea565b60405180910390fd5b60008060019054906101000a900460ff161590508015612097576001600060016101000a81548160ff02191690831515021790555060016000806101000a81548160ff0219169083151502179055505b600073ffffffffffffffffffffffffffffffffffffffff168673ffffffffffffffffffffffffffffffffffffffff1614156120d157600080fd5b600073ffffffffffffffffffffffffffffffffffffffff168573ffffffffffffffffffffffffffffffffffffffff16141561210b57600080fd5b600084101561211957600080fd5b600083101561212757600080fd5b600082101561213557600080fd5b6040518060400160405280600b81526020017f505552534520546f6b656e00000000000000000000000000000000000000000081525060c990805190602001906121809291906148c2565b506040518060400160405280600281526020017f505200000000000000000000000000000000000000000000000000000000000081525060ca90805190602001906121cc9291906148c2565b506bcecb8f27f4200f3a0000000060cb81905550601260cc60006101000a81548160ff021916908360ff16021790555069043c33c193756480000060cd819055508560d060006101000a81548173ffffffffffffffffffffffffffffffffffffffff021916908373ffffffffffffffffffffffffffffffffffffffff1602179055508460d160006101000a81548173ffffffffffffffffffffffffffffffffffffffff021916908373ffffffffffffffffffffffffffffffffffffffff1602179055508360d3819055508260d4819055508160d5819055503360ce60006101000a81548173ffffffffffffffffffffffffffffffffffffffff021916908373ffffffffffffffffffffffffffffffffffffffff16021790555060405180602001604052803373ffffffffffffffffffffffffffffffffffffffff1673ffffffffffffffffffffffffffffffffffffffff1681525060cf906001612330929190614948565b50612339613b2a565b612341613c13565b60cb5460d660008973ffffffffffffffffffffffffffffffffffffffff1673ffffffffffffffffffffffffffffffffffffffff168152602001908152602001600020819055508673ffffffffffffffffffffffffffffffffffffffff16600073ffffffffffffffffffffffffffffffffffffffff167fab8530f87dc9b59234c4623bf917212bb2536d647574c8e7e5da92c2ede0c9f860cb546040516123e791906151ca565b60405180910390a380156124105760008060016101000a81548160ff0219169083151502179055505b50505050505050565b60d060009054906101000a900473ffffffffffffffffffffffffffffffffffffffff1681565b612447611a6e565b15612487576040517f08c379a000000000000000000000000000000000000000000000000000000000815260040161247e906150ca565b60405180910390fd5b60ce60009054906101000a900473ffffffffffffffffffffffffffffffffffffffff1673ffffffffffffffffffffffffffffffffffffffff163373ffffffffffffffffffffffffffffffffffffffff1614612517576040517f08c379a000000000000000000000000000000000000000000000000000000000815260040161250e906151aa565b60405180910390fd5b61251f613cfc565b565b60ce60009054906101000a900473ffffffffffffffffffffffffffffffffffffffff1673ffffffffffffffffffffffffffffffffffffffff163373ffffffffffffffffffffffffffffffffffffffff16146125b1576040517f08c379a00000000000000000000000000000000000000000000000000000000081526004016125a8906151aa565b60405180910390fd5b600081101580156125c3575060648111155b6125cc57600080fd5b60d4548114156125db57600080fd5b8060d48190555050565b60ce60009054906101000a900473ffffffffffffffffffffffffffffffffffffffff1681565b60ca80546126189061546d565b80601f01602080910402602001604051908101604052809291908181526020018280546126449061546d565b80156126915780601f1061266657610100808354040283529160200191612691565b820191906000526020600020905b81548152906001019060200180831161267457829003601f168201915b505050505081565b6126a1611a6e565b156126e1576040517f08c379a00000000000000000000000000000000000000000000000000000000081526004016126d8906150ca565b60405180910390fd5b60d860003373ffffffffffffffffffffffffffffffffffffffff1673ffffffffffffffffffffffffffffffffffffffff16815260200190815260200160002060009054906101000a900460ff1661276d576040517f08c379a00000000000000000000000000000000000000000000000000000000081526004016127649061518a565b60405180910390fd5b600073ffffffffffffffffffffffffffffffffffffffff168273ffffffffffffffffffffffffffffffffffffffff1614156127a757600080fd5b600060d660008473ffffffffffffffffffffffffffffffffffffffff1673ffffffffffffffffffffffffffffffffffffffff168152602001908152602001600020549050818110156127f857600080fd5b8160d660008573ffffffffffffffffffffffffffffffffffffffff1673ffffffffffffffffffffffffffffffffffffffff168152602001908152602001600020600082825461284791906153a2565b925050819055508160cb600082825461286091906153a2565b92505081905550600073ffffffffffffffffffffffffffffffffffffffff168373ffffffffffffffffffffffffffffffffffffffff167fbac40739b0d4ca32fa2d82fc91630465ba3eddd1598da6fca393b26fb63b9453846040516128c591906151ca565b60405180910390a3505050565b60006128dc611a6e565b1561291c576040517f08c379a0000000000000000000000000000000000000000000000000000000008152600401612913906150ca565b60405180910390fd5b600082101561292a57600080fd5b8160d660003373ffffffffffffffffffffffffffffffffffffffff1673ffffffffffffffffffffffffffffffffffffffff16815260200190815260200160002054101561297657600080fd5b60d960008473ffffffffffffffffffffffffffffffffffffffff1673ffffffffffffffffffffffffffffffffffffffff16815260200190815260200160002060009054906101000a900460ff1680612a17575060da60003373ffffffffffffffffffffffffffffffffffffffff1673ffffffffffffffffffffffffffffffffffffffff16815260200190815260200160002060009054906101000a900460ff165b15612b36578160d660003373ffffffffffffffffffffffffffffffffffffffff1673ffffffffffffffffffffffffffffffffffffffff1681526020019081526020016000206000828254612a6b91906153a2565b925050819055508160d660008573ffffffffffffffffffffffffffffffffffffffff1673ffffffffffffffffffffffffffffffffffffffff1681526020019081526020016000206000828254612ac191906152c1565b925050819055508273ffffffffffffffffffffffffffffffffffffffff163373ffffffffffffffffffffffffffffffffffffffff167fddf252ad1be2c89b69c2b068fc378daa952ba7f163c4a11628f55a4df523b3ef84604051612b2591906151ca565b60405180910390a360019050612c5b565b6000612b4283336137a3565b90508060d660003373ffffffffffffffffffffffffffffffffffffffff1673ffffffffffffffffffffffffffffffffffffffff1681526020019081526020016000206000828254612b9391906153a2565b925050819055508060d660008673ffffffffffffffffffffffffffffffffffffffff1673ffffffffffffffffffffffffffffffffffffffff1681526020019081526020016000206000828254612be991906152c1565b925050819055508373ffffffffffffffffffffffffffffffffffffffff163373ffffffffffffffffffffffffffffffffffffffff167fddf252ad1be2c89b69c2b068fc378daa952ba7f163c4a11628f55a4df523b3ef83604051612c4d91906151ca565b60405180910390a360019150505b92915050565b606060ce60009054906101000a900473ffffffffffffffffffffffffffffffffffffffff1673ffffffffffffffffffffffffffffffffffffffff163373ffffffffffffffffffffffffffffffffffffffff1614612cf3576040517f08c379a0000000000000000000000000000000000000000000000000000000008152600401612cea906151aa565b60405180910390fd5b600060cf8381548110612d2f577f4e487b7100000000000000000000000000000000000000000000000000000000600052603260045260246000fd5b9060005260206000200160009054906101000a900473ffffffffffffffffffffffffffffffffffffffff16905060cf805490508310612d6d57600080fd5b600073ffffffffffffffffffffffffffffffffffffffff168173ffffffffffffffffffffffffffffffffffffffff161415612da757600080fd5b60d860008273ffffffffffffffffffffffffffffffffffffffff1673ffffffffffffffffffffffffffffffffffffffff16815260200190815260200160002060009054906101000a900460ff16612dfd57600080fd5b60008390505b600160cf80549050612e1591906153a2565b811015612f225760cf600182612e2b91906152c1565b81548110612e62577f4e487b7100000000000000000000000000000000000000000000000000000000600052603260045260246000fd5b9060005260206000200160009054906101000a900473ffffffffffffffffffffffffffffffffffffffff1660cf8281548110612ec7577f4e487b7100000000000000000000000000000000000000000000000000000000600052603260045260246000fd5b9060005260206000200160006101000a81548173ffffffffffffffffffffffffffffffffffffffff021916908373ffffffffffffffffffffffffffffffffffffffff1602179055508080612f1a906154d0565b915050612e03565b5060cf805480612f5b577f4e487b7100000000000000000000000000000000000000000000000000000000600052603160045260246000fd5b6001900381819060005260206000200160006101000a81549073ffffffffffffffffffffffffffffffffffffffff02191690559055600060d860008373ffffffffffffffffffffffffffffffffffffffff1673ffffffffffffffffffffffffffffffffffffffff16815260200190815260200160002060006101000a81548160ff02191690831515021790555060cf80548060200260200160405190810160405280929190818152602001828054801561306a57602002820191906000526020600020905b8160009054906101000a900473ffffffffffffffffffffffffffffffffffffffff1673ffffffffffffffffffffffffffffffffffffffff1681526020019060010190808311613020575b5050505050915050919050565b60ce60009054906101000a900473ffffffffffffffffffffffffffffffffffffffff1673ffffffffffffffffffffffffffffffffffffffff163373ffffffffffffffffffffffffffffffffffffffff1614613107576040517f08c379a00000000000000000000000000000000000000000000000000000000081526004016130fe906151aa565b60405180910390fd5b600073ffffffffffffffffffffffffffffffffffffffff168173ffffffffffffffffffffffffffffffffffffffff161415613177576040517f08c379a000000000000000000000000000000000000000000000000000000000815260040161316e9061516a565b60405180910390fd5b8273ffffffffffffffffffffffffffffffffffffffff1663a9059cbb82846040518363ffffffff1660e01b81526004016131b2929190614fe2565b602060405180830381600087803b1580156131cc57600080fd5b505af11580156131e0573d6000803e3d6000fd5b505050506040513d601f19601f820116820180604052508101906132049190614cb2565b50505050565b60d55481565b60da6020528060005260406000206000915054906101000a900460ff1681565b60d7602052816000526040600020602052806000526040600020600091509150505481565b60ce60009054906101000a900473ffffffffffffffffffffffffffffffffffffffff1673ffffffffffffffffffffffffffffffffffffffff163373ffffffffffffffffffffffffffffffffffffffff16146132e5576040517f08c379a00000000000000000000000000000000000000000000000000000000081526004016132dc906151aa565b60405180910390fd5b600073ffffffffffffffffffffffffffffffffffffffff168173ffffffffffffffffffffffffffffffffffffffff16141561331f57600080fd5b60d960008273ffffffffffffffffffffffffffffffffffffffff1673ffffffffffffffffffffffffffffffffffffffff16815260200190815260200160002060009054906101000a900460ff1661337557600080fd5b600060d960008373ffffffffffffffffffffffffffffffffffffffff1673ffffffffffffffffffffffffffffffffffffffff16815260200190815260200160002060006101000a81548160ff02191690831515021790555050565b60ce60009054906101000a900473ffffffffffffffffffffffffffffffffffffffff1673ffffffffffffffffffffffffffffffffffffffff163373ffffffffffffffffffffffffffffffffffffffff1614613460576040517f08c379a0000000000000000000000000000000000000000000000000000000008152600401613457906151aa565b60405180910390fd5b600073ffffffffffffffffffffffffffffffffffffffff168173ffffffffffffffffffffffffffffffffffffffff1614156134d0576040517f08c379a00000000000000000000000000000000000000000000000000000000081526004016134c79061510a565b60405180910390fd5b60ce60009054906101000a900473ffffffffffffffffffffffffffffffffffffffff1673ffffffffffffffffffffffffffffffffffffffff168173ffffffffffffffffffffffffffffffffffffffff161415613561576040517f08c379a0000000000000000000000000000000000000000000000000000000008152600401613558906150aa565b60405180910390fd5b8073ffffffffffffffffffffffffffffffffffffffff1660ce60009054906101000a900473ffffffffffffffffffffffffffffffffffffffff1673ffffffffffffffffffffffffffffffffffffffff167f8be0079c531659141344cd1fd0a4f28419497f9722a3daafe3b4186f6b6457e060405160405180910390a38060ce60006101000a81548173ffffffffffffffffffffffffffffffffffffffff021916908373ffffffffffffffffffffffffffffffffffffffff16021790555050565b60d25481565b60ce60009054906101000a900473ffffffffffffffffffffffffffffffffffffffff1673ffffffffffffffffffffffffffffffffffffffff163373ffffffffffffffffffffffffffffffffffffffff16146136b7576040517f08c379a00000000000000000000000000000000000000000000000000000000081526004016136ae906151aa565b60405180910390fd5b600073ffffffffffffffffffffffffffffffffffffffff168173ffffffffffffffffffffffffffffffffffffffff1614156136f157600080fd5b60d960008273ffffffffffffffffffffffffffffffffffffffff1673ffffffffffffffffffffffffffffffffffffffff16815260200190815260200160002060009054906101000a900460ff161561374857600080fd5b600160d960008373ffffffffffffffffffffffffffffffffffffffff1673ffffffffffffffffffffffffffffffffffffffff16815260200190815260200160002060006101000a81548160ff02191690831515021790555050565b6000806000905060008060006137b887613d9f565b8093508194508295505050506000831015806137d5575060008210155b806137e1575060008110155b156137f3576137f286848484613e3d565b5b8082848961380191906153a2565b61380b91906153a2565b61381591906153a2565b93508394505050505092915050565b60ce60009054906101000a900473ffffffffffffffffffffffffffffffffffffffff1673ffffffffffffffffffffffffffffffffffffffff163373ffffffffffffffffffffffffffffffffffffffff16146138b4576040517f08c379a00000000000000000000000000000000000000000000000000000000081526004016138ab906151aa565b60405180910390fd5b50565b60006138c161426a565b90506138cc846142c1565b6000835111806138d95750815b156138ea576138e8848461437a565b505b60006139187f4910fdfa16fed3260ed0e7147f7cc6da11a60208b5b9406d12a635614ffd914360001b61445e565b90508060000160009054906101000a900460ff16613a815760018160000160006101000a81548160ff0219169083151502179055506139e485836040516024016139629190614fc7565b6040516020818303038152906040527f3659cfe6000000000000000000000000000000000000000000000000000000007bffffffffffffffffffffffffffffffffffffffffffffffffffffffff19166020820180517bffffffffffffffffffffffffffffffffffffffffffffffffffffffff838183161783525050505061437a565b5060008160000160006101000a81548160ff021916908315150217905550613a0a61426a565b73ffffffffffffffffffffffffffffffffffffffff168273ffffffffffffffffffffffffffffffffffffffff1614613a77576040517f08c379a0000000000000000000000000000000000000000000000000000000008152600401613a6e9061508a565b60405180910390fd5b613a8085614468565b5b5050505050565b613a90611a6e565b613acf576040517f08c379a0000000000000000000000000000000000000000000000000000000008152600401613ac69061506a565b60405180910390fd5b6000609760006101000a81548160ff0219169083151502179055507f5db9ee0a495bf2e6ff9c91a7834c1ba4fdd244a5e8aa4e537bd38aeae4b073aa613b136144b7565b604051613b209190614fc7565b60405180910390a1565b600060019054906101000a900460ff1680613b50575060008054906101000a900460ff16155b613b8f576040517f08c379a0000000000000000000000000000000000000000000000000000000008152600401613b86906150ea565b60405180910390fd5b60008060019054906101000a900460ff161590508015613bdf576001600060016101000a81548160ff02191690831515021790555060016000806101000a81548160ff0219169083151502179055505b613be76144bf565b613bef614598565b8015613c105760008060016101000a81548160ff0219169083151502179055505b50565b600060019054906101000a900460ff1680613c39575060008054906101000a900460ff16155b613c78576040517f08c379a0000000000000000000000000000000000000000000000000000000008152600401613c6f906150ea565b60405180910390fd5b60008060019054906101000a900460ff161590508015613cc8576001600060016101000a81548160ff02191690831515021790555060016000806101000a81548160ff0219169083151502179055505b613cd061468c565b613cd8614765565b8015613cf95760008060016101000a81548160ff0219169083151502179055505b50565b613d04611a6e565b15613d44576040517f08c379a0000000000000000000000000000000000000000000000000000000008152600401613d3b906150ca565b60405180910390fd5b6001609760006101000a81548160ff0219169083151502179055507f62e78cea01bee320cd4e420270b5ea74000d11b0c9f74754ebdbfc544b05a258613d886144b7565b604051613d959190614fc7565b60405180910390a1565b60008060008060008060cd5460cb541115613e2a57606460d35488613dc49190615348565b613dce9190615317565b9250606460d45488613de09190615348565b613dea9190615317565b9150606460d55488613dfc9190615348565b613e069190615317565b9050600060cd5460cb54613e1a91906153a2565b905080841115613e28578093505b505b8282829550955095505050509193909250565b600073ffffffffffffffffffffffffffffffffffffffff168473ffffffffffffffffffffffffffffffffffffffff161415613e7757600080fd5b600060d660008673ffffffffffffffffffffffffffffffffffffffff1673ffffffffffffffffffffffffffffffffffffffff1681526020019081526020016000205490506000828486613eca91906152c1565b613ed491906152c1565b905080821015613ee357600080fd5b8460d660008873ffffffffffffffffffffffffffffffffffffffff1673ffffffffffffffffffffffffffffffffffffffff1681526020019081526020016000206000828254613f3291906153a2565b925050819055508360d660008873ffffffffffffffffffffffffffffffffffffffff1673ffffffffffffffffffffffffffffffffffffffff1681526020019081526020016000206000828254613f8891906153a2565b925050819055508260d660008873ffffffffffffffffffffffffffffffffffffffff1673ffffffffffffffffffffffffffffffffffffffff1681526020019081526020016000206000828254613fde91906153a2565b925050819055508460cb6000828254613ff791906153a2565b925050819055508360d6600060d060009054906101000a900473ffffffffffffffffffffffffffffffffffffffff1673ffffffffffffffffffffffffffffffffffffffff1673ffffffffffffffffffffffffffffffffffffffff168152602001908152602001600020600082825461406f91906152c1565b925050819055508260d6600060d160009054906101000a900473ffffffffffffffffffffffffffffffffffffffff1673ffffffffffffffffffffffffffffffffffffffff1673ffffffffffffffffffffffffffffffffffffffff16815260200190815260200160002060008282546140e791906152c1565b92505081905550600073ffffffffffffffffffffffffffffffffffffffff168673ffffffffffffffffffffffffffffffffffffffff167fbac40739b0d4ca32fa2d82fc91630465ba3eddd1598da6fca393b26fb63b94538760405161414c91906151ca565b60405180910390a360d060009054906101000a900473ffffffffffffffffffffffffffffffffffffffff1673ffffffffffffffffffffffffffffffffffffffff163373ffffffffffffffffffffffffffffffffffffffff167fddf252ad1be2c89b69c2b068fc378daa952ba7f163c4a11628f55a4df523b3ef866040516141d391906151ca565b60405180910390a360d160009054906101000a900473ffffffffffffffffffffffffffffffffffffffff1673ffffffffffffffffffffffffffffffffffffffff163373ffffffffffffffffffffffffffffffffffffffff167fddf252ad1be2c89b69c2b068fc378daa952ba7f163c4a11628f55a4df523b3ef8560405161425a91906151ca565b60405180910390a3505050505050565b60006142987f360894a13ba1a3210667c828492db98dca3e2076cc3735a920a3ca505d382bbc60001b61483e565b60000160009054906101000a900473ffffffffffffffffffffffffffffffffffffffff16905090565b6142ca81614848565b614309576040517f08c379a00000000000000000000000000000000000000000000000000000000081526004016143009061512a565b60405180910390fd5b806143367f360894a13ba1a3210667c828492db98dca3e2076cc3735a920a3ca505d382bbc60001b61483e565b60000160006101000a81548173ffffffffffffffffffffffffffffffffffffffff021916908373ffffffffffffffffffffffffffffffffffffffff16021790555050565b606061438583614848565b6143c4576040517f08c379a00000000000000000000000000000000000000000000000000000000081526004016143bb9061514a565b60405180910390fd5b6000808473ffffffffffffffffffffffffffffffffffffffff16846040516143ec9190614fb0565b600060405180830381855af49150503d8060008114614427576040519150601f19603f3d011682016040523d82523d6000602084013e61442c565b606091505b509150915061445482826040518060600160405280602781526020016158876027913961485b565b9250505092915050565b6000819050919050565b614471816142c1565b8073ffffffffffffffffffffffffffffffffffffffff167fbc7cd75a20ee27fd9adebab32041f755214dbc6bffa90cc0225b39da2e5c2d3b60405160405180910390a250565b600033905090565b600060019054906101000a900460ff16806144e5575060008054906101000a900460ff16155b614524576040517f08c379a000000000000000000000000000000000000000000000000000000000815260040161451b906150ea565b60405180910390fd5b60008060019054906101000a900460ff161590508015614574576001600060016101000a81548160ff02191690831515021790555060016000806101000a81548160ff0219169083151502179055505b80156145955760008060016101000a81548160ff0219169083151502179055505b50565b600060019054906101000a900460ff16806145be575060008054906101000a900460ff16155b6145fd576040517f08c379a00000000000000000000000000000000000000000000000000000000081526004016145f4906150ea565b60405180910390fd5b60008060019054906101000a900460ff16159050801561464d576001600060016101000a81548160ff02191690831515021790555060016000806101000a81548160ff0219169083151502179055505b6000609760006101000a81548160ff02191690831515021790555080156146895760008060016101000a81548160ff0219169083151502179055505b50565b600060019054906101000a900460ff16806146b2575060008054906101000a900460ff16155b6146f1576040517f08c379a00000000000000000000000000000000000000000000000000000000081526004016146e8906150ea565b60405180910390fd5b60008060019054906101000a900460ff161590508015614741576001600060016101000a81548160ff02191690831515021790555060016000806101000a81548160ff0219169083151502179055505b80156147625760008060016101000a81548160ff0219169083151502179055505b50565b600060019054906101000a900460ff168061478b575060008054906101000a900460ff16155b6147ca576040517f08c379a00000000000000000000000000000000000000000000000000000000081526004016147c1906150ea565b60405180910390fd5b60008060019054906101000a900460ff16159050801561481a576001600060016101000a81548160ff02191690831515021790555060016000806101000a81548160ff0219169083151502179055505b801561483b5760008060016101000a81548160ff0219169083151502179055505b50565b6000819050919050565b600080823b905060008111915050919050565b6060831561486b578290506148bb565b60008351111561487e5782518084602001fd5b816040517f08c379a00000000000000000000000000000000000000000000000000000000081526004016148b29190615048565b60405180910390fd5b9392505050565b8280546148ce9061546d565b90600052602060002090601f0160209004810192826148f05760008555614937565b82601f1061490957805160ff1916838001178555614937565b82800160010185558215614937579182015b8281111561493657825182559160200191906001019061491b565b5b50905061494491906149d2565b5090565b8280548282559060005260206000209081019282156149c1579160200282015b828111156149c05782518260006101000a81548173ffffffffffffffffffffffffffffffffffffffff021916908373ffffffffffffffffffffffffffffffffffffffff16021790555091602001919060010190614968565b5b5090506149ce91906149d2565b5090565b5b808211156149eb5760008160009055506001016149d3565b5090565b6000614a026149fd84615225565b615200565b905082815260208101848484011115614a1a57600080fd5b614a2584828561542b565b509392505050565b600081359050614a3c81615841565b92915050565b600081519050614a5181615858565b92915050565b600082601f830112614a6857600080fd5b8135614a788482602086016149ef565b91505092915050565b600081359050614a908161586f565b92915050565b600060208284031215614aa857600080fd5b6000614ab684828501614a2d565b91505092915050565b60008060408385031215614ad257600080fd5b6000614ae085828601614a2d565b9250506020614af185828601614a2d565b9150509250929050565b60008060008060008060c08789031215614b1457600080fd5b6000614b2289828a01614a2d565b9650506020614b3389828a01614a2d565b9550506040614b4489828a01614a2d565b9450506060614b5589828a01614a81565b9350506080614b6689828a01614a81565b92505060a0614b7789828a01614a81565b9150509295509295509295565b600080600060608486031215614b9957600080fd5b6000614ba786828701614a2d565b9350506020614bb886828701614a2d565b9250506040614bc986828701614a81565b9150509250925092565b60008060408385031215614be657600080fd5b6000614bf485828601614a2d565b925050602083013567ffffffffffffffff811115614c1157600080fd5b614c1d85828601614a57565b9150509250929050565b60008060408385031215614c3a57600080fd5b6000614c4885828601614a2d565b9250506020614c5985828601614a81565b9150509250929050565b600080600060608486031215614c7857600080fd5b6000614c8686828701614a2d565b9350506020614c9786828701614a81565b9250506040614ca886828701614a2d565b9150509250925092565b600060208284031215614cc457600080fd5b6000614cd284828501614a42565b91505092915050565b600060208284031215614ced57600080fd5b6000614cfb84828501614a81565b91505092915050565b6000614d108383614d1c565b60208301905092915050565b614d25816153d6565b82525050565b614d34816153d6565b82525050565b6000614d4582615266565b614d4f8185615294565b9350614d5a83615256565b8060005b83811015614d8b578151614d728882614d04565b9750614d7d83615287565b925050600181019050614d5e565b5085935050505092915050565b614da1816153e8565b82525050565b6000614db282615271565b614dbc81856152a5565b9350614dcc81856020860161543a565b80840191505092915050565b6000614de38261527c565b614ded81856152b0565b9350614dfd81856020860161543a565b614e06816155d5565b840191505092915050565b6000614e1e6014836152b0565b9150614e29826155e6565b602082019050919050565b6000614e41602f836152b0565b9150614e4c8261560f565b604082019050919050565b6000614e646012836152b0565b9150614e6f8261565e565b602082019050919050565b6000614e876010836152b0565b9150614e9282615687565b602082019050919050565b6000614eaa602e836152b0565b9150614eb5826156b0565b604082019050919050565b6000614ecd6011836152b0565b9150614ed8826156ff565b602082019050919050565b6000614ef0602d836152b0565b9150614efb82615728565b604082019050919050565b6000614f136026836152b0565b9150614f1e82615777565b604082019050919050565b6000614f366018836152b0565b9150614f41826157c6565b602082019050919050565b6000614f596009836152b0565b9150614f64826157ef565b602082019050919050565b6000614f7c6009836152b0565b9150614f8782615818565b602082019050919050565b614f9b81615414565b82525050565b614faa8161541e565b82525050565b6000614fbc8284614da7565b915081905092915050565b6000602082019050614fdc6000830184614d2b565b92915050565b6000604082019050614ff76000830185614d2b565b6150046020830184614f92565b9392505050565b600060208201905081810360008301526150258184614d3a565b905092915050565b60006020820190506150426000830184614d98565b92915050565b600060208201905081810360008301526150628184614dd8565b905092915050565b6000602082019050818103600083015261508381614e11565b9050919050565b600060208201905081810360008301526150a381614e34565b9050919050565b600060208201905081810360008301526150c381614e57565b9050919050565b600060208201905081810360008301526150e381614e7a565b9050919050565b6000602082019050818103600083015261510381614e9d565b9050919050565b6000602082019050818103600083015261512381614ec0565b9050919050565b6000602082019050818103600083015261514381614ee3565b9050919050565b6000602082019050818103600083015261516381614f06565b9050919050565b6000602082019050818103600083015261518381614f29565b9050919050565b600060208201905081810360008301526151a381614f4c565b9050919050565b600060208201905081810360008301526151c381614f6f565b9050919050565b60006020820190506151df6000830184614f92565b92915050565b60006020820190506151fa6000830184614fa1565b92915050565b600061520a61521b565b9050615216828261549f565b919050565b6000604051905090565b600067ffffffffffffffff8211156152405761523f6155a6565b5b615249826155d5565b9050602081019050919050565b6000819050602082019050919050565b600081519050919050565b600081519050919050565b600081519050919050565b6000602082019050919050565b600082825260208201905092915050565b600081905092915050565b600082825260208201905092915050565b60006152cc82615414565b91506152d783615414565b9250827fffffffffffffffffffffffffffffffffffffffffffffffffffffffffffffffff0382111561530c5761530b615519565b5b828201905092915050565b600061532282615414565b915061532d83615414565b92508261533d5761533c615548565b5b828204905092915050565b600061535382615414565b915061535e83615414565b9250817fffffffffffffffffffffffffffffffffffffffffffffffffffffffffffffffff048311821515161561539757615396615519565b5b828202905092915050565b60006153ad82615414565b91506153b883615414565b9250828210156153cb576153ca615519565b5b828203905092915050565b60006153e1826153f4565b9050919050565b60008115159050919050565b600073ffffffffffffffffffffffffffffffffffffffff82169050919050565b6000819050919050565b600060ff82169050919050565b82818337600083830152505050565b60005b8381101561545857808201518184015260208101905061543d565b83811115615467576000848401525b50505050565b6000600282049050600182168061548557607f821691505b6020821081141561549957615498615577565b5b50919050565b6154a8826155d5565b810181811067ffffffffffffffff821117156154c7576154c66155a6565b5b80604052505050565b60006154db82615414565b91507fffffffffffffffffffffffffffffffffffffffffffffffffffffffffffffffff82141561550e5761550d615519565b5b600182019050919050565b7f4e487b7100000000000000000000000000000000000000000000000000000000600052601160045260246000fd5b7f4e487b7100000000000000000000000000000000000000000000000000000000600052601260045260246000fd5b7f4e487b7100000000000000000000000000000000000000000000000000000000600052602260045260246000fd5b7f4e487b7100000000000000000000000000000000000000000000000000000000600052604160045260246000fd5b6000601f19601f8301169050919050565b7f5061757361626c653a206e6f7420706175736564000000000000000000000000600082015250565b7f45524331393637557067726164653a207570677261646520627265616b73206660008201527f7572746865722075706772616465730000000000000000000000000000000000602082015250565b7f73616d65206f776e657220616464726573730000000000000000000000000000600082015250565b7f5061757361626c653a2070617573656400000000000000000000000000000000600082015250565b7f496e697469616c697a61626c653a20636f6e747261637420697320616c72656160008201527f647920696e697469616c697a6564000000000000000000000000000000000000602082015250565b7f6e6f742076616c69642061646472657373000000000000000000000000000000600082015250565b7f455243313936373a206e657720696d706c656d656e746174696f6e206973206e60008201527f6f74206120636f6e747261637400000000000000000000000000000000000000602082015250565b7f416464726573733a2064656c65676174652063616c6c20746f206e6f6e2d636f60008201527f6e74726163740000000000000000000000000000000000000000000000000000602082015250565b7f73656e6420746f20746865207a65726f20616464726573730000000000000000600082015250565b7f6e6f742061646d696e0000000000000000000000000000000000000000000000600082015250565b7f6e6f74206f776e65720000000000000000000000000000000000000000000000600082015250565b61584a816153d6565b811461585557600080fd5b50565b615861816153e8565b811461586c57600080fd5b50565b61587881615414565b811461588357600080fd5b5056fe416464726573733a206c6f772d6c6576656c2064656c65676174652063616c6c206661696c6564a2646970667358221220c2a11c486d22806dce772380cdedff8f76f099de90d89d4312611d3b1f46f2c364736f6c63430008020033",
  "immutableReferences": {},
  "source": "// SPDX-License-Identifier: UNLICENSED\r\n\r\npragma solidity ^0.8.0;\r\n\r\nimport \"@openzeppelin/contracts-upgradeable/proxy/utils/Initializable.sol\";\r\nimport \"@openzeppelin/contracts-upgradeable/proxy/utils/UUPSUpgradeable.sol\";\r\nimport \"@openzeppelin/contracts-upgradeable/security/PausableUpgradeable.sol\";\r\n\r\nabstract contract ERC20Interface {\r\n\r\n    function transfer(address to, uint tokens) public virtual returns (bool success);\r\n\r\n    function transferFrom(address from, address to, uint tokens) public virtual returns (bool success);\r\n\r\n}\r\n\r\ncontract PurseTokenUpgradable is Initializable, UUPSUpgradeable, PausableUpgradeable {\r\n    string public name;\r\n    string public symbol;\r\n    uint256 public totalSupply;\r\n    uint8 public decimals;\r\n    uint256 private minimumSupply;\r\n    address public owner;\r\n    address[] public admins;\r\n    address public liqPool;\r\n    address public disPool;\r\n    uint256 public mintIndex;\r\n    uint256 public burnPercent;\r\n    uint256 public liqPercent;\r\n    uint256 public disPercent;\r\n\r\n    event Transfer(address indexed _from, address indexed _to, uint256 _value);\r\n    event Burn(address indexed _from, address indexed _to, uint256 _value);\r\n    event Mint(address indexed _from, address indexed _to, uint256 _value);\r\n    event Approval(address indexed _owner, address indexed _spender, uint256 _value);\r\n    event OwnershipRenounced(address indexed previousOwner);\r\n    event OwnershipTransferred(address indexed previousOwner, address indexed newOwner);\r\n\r\n    modifier onlyOwner() {\r\n        require(msg.sender == owner, \"not owner\");\r\n        _;\r\n    }\r\n\r\n    modifier onlyAdmin() {\r\n        require(isAdmin[msg.sender], \"not admin\");\r\n        _;\r\n    }\r\n\r\n    mapping(address => uint256) public balanceOf;\r\n    mapping(address => mapping(address => uint256)) public allowance;\r\n    mapping(address => bool) public isAdmin;\r\n    mapping(address => bool) public isWhitelistedTo;\r\n    mapping(address => bool) public isWhitelistedFrom;\r\n\r\n    function transferOwnership(address _owner) public onlyOwner{\r\n        require(_owner != address(0), \"not valid address\");\r\n        require(_owner != owner, \"same owner address\");\r\n        emit OwnershipTransferred(owner, _owner);\r\n        owner = _owner;\r\n    }\r\n      \r\n    function renounceOwnership() public onlyOwner {\r\n        emit OwnershipRenounced(owner);\r\n        owner = address(0);\r\n    }\r\n\r\n    function setWhitelistedTo(address newWhitelist) external onlyOwner {\r\n        require(newWhitelist != address(0));\r\n        require(!isWhitelistedTo[newWhitelist]);\r\n\r\n        isWhitelistedTo[newWhitelist] = true;\r\n    }\r\n\r\n    function removeWhitelistedTo(address newWhitelist) external onlyOwner {\r\n        require(newWhitelist != address(0));\r\n        require(isWhitelistedTo[newWhitelist]);\r\n\r\n        isWhitelistedTo[newWhitelist] = false;\r\n    }\r\n\r\n    function setWhitelistedFrom(address newWhitelist) external onlyOwner {\r\n        require(newWhitelist != address(0));\r\n        require(!isWhitelistedFrom[newWhitelist]);\r\n\r\n        isWhitelistedFrom[newWhitelist] = true;\r\n    }\r\n\r\n    function removeWhitelistedFrom(address newWhitelist) external onlyOwner {\r\n        require(newWhitelist != address(0));\r\n        require(isWhitelistedFrom[newWhitelist]);\r\n\r\n        isWhitelistedFrom[newWhitelist] = false;\r\n    }\r\n\r\n    function transfer(address _to, uint256 _value)\r\n        public\r\n        whenNotPaused \r\n        returns (bool success)\r\n    {\r\n        require(_value >= 0);\r\n        require(balanceOf[msg.sender] >= _value);\r\n        if (isWhitelistedTo[_to] || isWhitelistedFrom[msg.sender]) {\r\n            balanceOf[msg.sender] -= _value;\r\n            balanceOf[_to] += _value;\r\n\r\n            emit Transfer(msg.sender, _to, _value);\r\n            return true;\r\n        } else {\r\n            uint256 transferValue = _partialBurn(_value, msg.sender);\r\n            balanceOf[msg.sender] -= transferValue;\r\n            balanceOf[_to] += transferValue;\r\n\r\n            emit Transfer(msg.sender, _to, transferValue);\r\n            return true;\r\n        }\r\n    }\r\n\r\n    function approve(address _spender, uint256 _value)\r\n        public\r\n        whenNotPaused \r\n        returns (bool success)\r\n    {\r\n        allowance[msg.sender][_spender] = _value;\r\n        emit Approval(msg.sender, _spender, _value);\r\n        return true;\r\n    }\r\n\r\n    function transferFrom(\r\n        address _from,\r\n        address _to,\r\n        uint256 _value\r\n    ) public whenNotPaused returns (bool success) {\r\n        require(_value >= 0);\r\n        require(_value <= balanceOf[_from]);\r\n        require(_value <= allowance[_from][msg.sender]);\r\n        if (isWhitelistedTo[_to] || isWhitelistedFrom[msg.sender]) {\r\n            allowance[_from][msg.sender] -= _value;\r\n            balanceOf[_from] -= _value;\r\n            balanceOf[_to] += _value;\r\n            emit Transfer(_from, _to, _value);\r\n            return true;\r\n        } else {\r\n            allowance[_from][msg.sender] -= _value;\r\n            uint256 transferValue = _partialBurn(_value, _from);\r\n            balanceOf[_from] -= transferValue;\r\n            balanceOf[_to] += transferValue;\r\n            emit Transfer(_from, _to, transferValue);\r\n            return true;\r\n        }\r\n    }\r\n\r\n    function mint(address _account, uint256 _amount) public whenNotPaused onlyAdmin {\r\n        require(_account != address(0));\r\n\r\n        balanceOf[_account] += _amount;\r\n        totalSupply += _amount;\r\n        emit Mint(address(0), _account, _amount);\r\n    }\r\n\r\n\r\n    function burn(address _account, uint256 _amount) public whenNotPaused onlyAdmin {\r\n        require(_account != address(0));\r\n        uint256 accountBalance = balanceOf[_account];\r\n        require(accountBalance >= _amount);\r\n        balanceOf[_account] -= _amount;\r\n        totalSupply -= _amount;\r\n        emit Burn(_account, address(0), _amount);\r\n    }\r\n\r\n    function _partialBurn(uint256 _amount, address _from)\r\n        internal\r\n        returns (uint256)\r\n    {\r\n        uint256 transferAmount = 0;\r\n        uint256 burnAmount;\r\n        uint256 liqAmount;\r\n        uint256 disAmount;\r\n        (\r\n            burnAmount,\r\n            liqAmount,\r\n            disAmount\r\n        ) = _calculateDeductAmount(_amount);\r\n\r\n        if (burnAmount >= 0 || liqAmount >= 0 || disAmount >= 0) {\r\n            burnPrivate(_from, burnAmount, liqAmount, disAmount);\r\n        }\r\n        transferAmount = _amount - burnAmount - liqAmount - disAmount;\r\n\r\n        return transferAmount;\r\n    }\r\n\r\n    function _calculateDeductAmount(uint256 _amount)\r\n        internal\r\n        view\r\n        returns (\r\n            uint256,\r\n            uint256,\r\n            uint256\r\n        )\r\n    {\r\n        uint256 burnAmount;\r\n        uint256 liqAmount;\r\n        uint256 disAmount;\r\n\r\n        if (totalSupply > minimumSupply) {\r\n            burnAmount = (_amount * burnPercent) / 100;\r\n            liqAmount = (_amount * liqPercent) / 100;\r\n            disAmount = (_amount * disPercent) / 100;\r\n            uint256 availableBurn = totalSupply - minimumSupply;\r\n            if (burnAmount > availableBurn) {\r\n                burnAmount = availableBurn;\r\n            }\r\n        }\r\n        return (burnAmount, liqAmount, disAmount);\r\n    }\r\n\r\n    function burnPrivate(\r\n        address _account,\r\n        uint256 _burnAmount,\r\n        uint256 _liqAmount,\r\n        uint256 _disAmount\r\n    ) private {\r\n        require(_account != address(0));\r\n        uint256 accountBalance = balanceOf[_account];\r\n        uint256 deductAmount = _burnAmount + _liqAmount + _disAmount;\r\n        require(accountBalance >= deductAmount);\r\n        balanceOf[_account] -= _burnAmount;\r\n        balanceOf[_account] -= _liqAmount;\r\n        balanceOf[_account] -= _disAmount;\r\n\r\n        totalSupply -= _burnAmount;\r\n        balanceOf[liqPool] += _liqAmount;\r\n        balanceOf[disPool] += _disAmount;\r\n        emit Burn(_account, address(0), _burnAmount);\r\n        emit Transfer(msg.sender, liqPool, _liqAmount);\r\n        emit Transfer(msg.sender, disPool, _disAmount);\r\n    }\r\n\r\n\r\n    function updateLPoolAdd(address _newLPool) public onlyOwner {\r\n        require(_newLPool != address(0));\r\n        require(_newLPool != liqPool);\r\n\r\n        liqPool = _newLPool;\r\n    }\r\n\r\n    function updateRPoolAdd(address _newRPool) public onlyOwner {\r\n        require(_newRPool != address(0));\r\n        require(_newRPool != disPool);\r\n\r\n        disPool = _newRPool;\r\n    }\r\n\r\n    function updateBurnPercent(uint256 _newBurnPercent) public onlyOwner {\r\n        require(_newBurnPercent >= 0 && _newBurnPercent <= 100);\r\n        require(_newBurnPercent != burnPercent);\r\n\r\n        burnPercent = _newBurnPercent;\r\n    }\r\n\r\n    function updateLiqPercent(uint256 _newLiqPercent) public onlyOwner {\r\n        require(_newLiqPercent >= 0 && _newLiqPercent <= 100);\r\n        require(_newLiqPercent != liqPercent);\r\n\r\n        liqPercent = _newLiqPercent;\r\n    }\r\n\r\n    function updateDisPercent(uint256 _newDisPercent) public onlyOwner {\r\n        require(_newDisPercent >= 0 && _newDisPercent <= 100);\r\n        require(_newDisPercent != disPercent);\r\n\r\n        disPercent = _newDisPercent;\r\n    }\r\n\r\n    function addAdmin(address newAdmin) public onlyOwner{\r\n        require(newAdmin != address(0));\r\n        require(!isAdmin[newAdmin]);\r\n\r\n        isAdmin[newAdmin] = true;\r\n        admins.push(newAdmin);\r\n    }\r\n\r\n    function removeAdmin(uint index) public onlyOwner returns (address[] memory){\r\n        address removeOwner = admins[index];\r\n        require(index < admins.length);\r\n        require(removeOwner != address(0));\r\n        require(isAdmin[removeOwner]);\r\n        \r\n        for (uint i = index; i<admins.length-1; i++){\r\n            admins[i] = admins[i+1];\r\n        }\r\n        admins.pop();\r\n\r\n        isAdmin[removeOwner] = false;\r\n        return admins;\r\n    }\r\n\r\n    function getAdmins() public view returns (address[] memory) {\r\n        return admins;\r\n    }\r\n    \r\n    function returnAnyToken(address token, uint256 amount, address _to) public onlyOwner{\r\n        require(_to != address(0), \"send to the zero address\");\r\n        ERC20Interface(token).transfer(_to, amount);\r\n    } \r\n\r\n    function pause() public whenNotPaused onlyOwner {\r\n        _pause();\r\n    }\r\n\r\n    function unpause() public whenPaused onlyOwner {\r\n        _unpause();\r\n    }\r\n\r\n    function _authorizeUpgrade(address) internal override onlyOwner {}\r\n\r\n    function initialize(\r\n        address _to,\r\n        address _lPool,\r\n        address _rPool,\r\n        uint256 _burnPercent,\r\n        uint256 _liqPercent,\r\n        uint256 _disPercent\r\n    ) public initializer {\r\n        require(_lPool != address(0));\r\n        require(_rPool != address(0));\r\n        require(_burnPercent >= 0);\r\n        require(_liqPercent >= 0);\r\n        require(_disPercent >= 0);\r\n\r\n        name = \"PURSE Token\";\r\n        symbol = \"PR\";\r\n        totalSupply = 64000000000 * (10**18); // 64 billion tokens\r\n        decimals = 18;\r\n        minimumSupply = 20000 * (10**18);\r\n\r\n        liqPool = _lPool;\r\n        disPool = _rPool;\r\n        burnPercent = _burnPercent;\r\n        liqPercent = _liqPercent;\r\n        disPercent = _disPercent;\r\n        owner = msg.sender;\r\n        admins = [msg.sender];\r\n        __Pausable_init();\r\n        __UUPSUpgradeable_init();\r\n\r\n        balanceOf[_to] = totalSupply;\r\n        emit Mint(address(0), _to, totalSupply);\r\n    }\r\n}",
  "sourcePath": "C:\\Users\\richa\\Desktop\\RestakingPool\\src\\contracts\\PurseTokenUpgradable.sol",
  "compiler": {
    "name": "solc",
    "version": "0.8.2+commit.661d1103.Emscripten.clang"
  },
  "schemaVersion": "3.4.3",
  "updatedAt": "2021-09-17T08:33:22.267Z",
  "networkType": "ethereum",
  "devdoc": {
    "kind": "dev",
    "methods": {
      "paused()": {
        "details": "Returns true if the contract is paused, and false otherwise."
      },
      "upgradeTo(address)": {
        "details": "Upgrade the implementation of the proxy to `newImplementation`. Calls {_authorizeUpgrade}. Emits an {Upgraded} event."
      },
      "upgradeToAndCall(address,bytes)": {
        "details": "Upgrade the implementation of the proxy to `newImplementation`, and subsequently execute the function call encoded in `data`. Calls {_authorizeUpgrade}. Emits an {Upgraded} event."
      }
    },
    "version": 1
  },
  "userdoc": {
    "kind": "user",
    "methods": {},
    "version": 1
  }
}