{
  "contractName": "RestakingFarm",
  "abi": [
    {
      "inputs": [
        {
          "internalType": "contract PurseTokenUpgradable",
          "name": "_purseToken",
          "type": "address"
        },
        {
          "internalType": "contract UniToken",
          "name": "_uniToken",
          "type": "address"
        },
        {
          "internalType": "uint256",
          "name": "_pursePerBlock",
          "type": "uint256"
        },
        {
          "internalType": "uint256",
          "name": "_startBlock",
          "type": "uint256"
        }
      ],
      "stateMutability": "nonpayable",
      "type": "constructor"
    },
    {
      "anonymous": false,
      "inputs": [
        {
          "indexed": true,
          "internalType": "address",
          "name": "user",
          "type": "address"
        },
        {
          "indexed": false,
          "internalType": "uint256",
          "name": "amount",
          "type": "uint256"
        }
      ],
      "name": "Deposit",
      "type": "event"
    },
    {
      "anonymous": false,
      "inputs": [
        {
          "indexed": true,
          "internalType": "address",
          "name": "previousOwner",
          "type": "address"
        },
        {
          "indexed": true,
          "internalType": "address",
          "name": "newOwner",
          "type": "address"
        }
      ],
      "name": "OwnershipTransferred",
      "type": "event"
    },
    {
      "anonymous": false,
      "inputs": [
        {
          "indexed": true,
          "internalType": "address",
          "name": "user",
          "type": "address"
        },
        {
          "indexed": false,
          "internalType": "uint256",
          "name": "amount",
          "type": "uint256"
        }
      ],
      "name": "Withdraw",
      "type": "event"
    },
    {
      "inputs": [],
      "name": "isOwner",
      "outputs": [
        {
          "internalType": "bool",
          "name": "",
          "type": "bool"
        }
      ],
      "stateMutability": "view",
      "type": "function"
    },
    {
      "inputs": [],
      "name": "name",
      "outputs": [
        {
          "internalType": "string",
          "name": "",
          "type": "string"
        }
      ],
      "stateMutability": "view",
      "type": "function"
    },
    {
      "inputs": [],
      "name": "owner",
      "outputs": [
        {
          "internalType": "address",
          "name": "",
          "type": "address"
        }
      ],
      "stateMutability": "view",
      "type": "function"
    },
    {
      "inputs": [],
      "name": "poolInfo",
      "outputs": [
        {
          "internalType": "uint256",
          "name": "lastRewardBlock",
          "type": "uint256"
        },
        {
          "internalType": "uint256",
          "name": "accPursePerShare",
          "type": "uint256"
        }
      ],
      "stateMutability": "view",
      "type": "function"
    },
    {
      "inputs": [],
      "name": "pursePerBlock",
      "outputs": [
        {
          "internalType": "uint256",
          "name": "",
          "type": "uint256"
        }
      ],
      "stateMutability": "view",
      "type": "function"
    },
    {
      "inputs": [],
      "name": "purseToken",
      "outputs": [
        {
          "internalType": "contract PurseTokenUpgradable",
          "name": "",
          "type": "address"
        }
      ],
      "stateMutability": "view",
      "type": "function"
    },
    {
      "inputs": [],
      "name": "startBlock",
      "outputs": [
        {
          "internalType": "uint256",
          "name": "",
          "type": "uint256"
        }
      ],
      "stateMutability": "view",
      "type": "function"
    },
    {
      "inputs": [],
      "name": "uniToken",
      "outputs": [
        {
          "internalType": "contract UniToken",
          "name": "",
          "type": "address"
        }
      ],
      "stateMutability": "view",
      "type": "function"
    },
    {
      "inputs": [
        {
          "internalType": "address",
          "name": "",
          "type": "address"
        }
      ],
      "name": "userInfo",
      "outputs": [
        {
          "internalType": "uint256",
          "name": "amount",
          "type": "uint256"
        },
        {
          "internalType": "uint256",
          "name": "rewardDebt",
          "type": "uint256"
        }
      ],
      "stateMutability": "view",
      "type": "function"
    },
    {
      "inputs": [
        {
          "internalType": "uint256",
          "name": "_from",
          "type": "uint256"
        },
        {
          "internalType": "uint256",
          "name": "_to",
          "type": "uint256"
        }
      ],
      "name": "getMultiplier",
      "outputs": [
        {
          "internalType": "uint256",
          "name": "",
          "type": "uint256"
        }
      ],
      "stateMutability": "pure",
      "type": "function"
    },
    {
      "inputs": [],
      "name": "updatePool",
      "outputs": [],
      "stateMutability": "nonpayable",
      "type": "function"
    },
    {
      "inputs": [
        {
          "internalType": "uint256",
          "name": "_amount",
          "type": "uint256"
        }
      ],
      "name": "deposit",
      "outputs": [],
      "stateMutability": "nonpayable",
      "type": "function"
    },
    {
      "inputs": [
        {
          "internalType": "uint256",
          "name": "_amount",
          "type": "uint256"
        }
      ],
      "name": "withdraw",
      "outputs": [],
      "stateMutability": "nonpayable",
      "type": "function"
    }
  ],
  "bytecode": "0x60806040526040518060400160405280600d81526020017f52657374616b696e674661726d000000000000000000000000000000000000008152506001908051906020019062000051929190620001d1565b503480156200005f57600080fd5b5060405162001651380380620016518339818101604052810190620000859190620002c6565b336000806101000a81548173ffffffffffffffffffffffffffffffffffffffff021916908373ffffffffffffffffffffffffffffffffffffffff1602179055503373ffffffffffffffffffffffffffffffffffffffff16600073ffffffffffffffffffffffffffffffffffffffff167f8be0079c531659141344cd1fd0a4f28419497f9722a3daafe3b4186f6b6457e060405160405180910390a383600260006101000a81548173ffffffffffffffffffffffffffffffffffffffff021916908373ffffffffffffffffffffffffffffffffffffffff16021790555082600360006101000a81548173ffffffffffffffffffffffffffffffffffffffff021916908373ffffffffffffffffffffffffffffffffffffffff16021790555081600481905550806005819055506005546006600001819055506000600660010181905550505050506200044b565b828054620001df9062000398565b90600052602060002090601f0160209004810192826200020357600085556200024f565b82601f106200021e57805160ff19168380011785556200024f565b828001600101855582156200024f579182015b828111156200024e57825182559160200191906001019062000231565b5b5090506200025e919062000262565b5090565b5b808211156200027d57600081600090555060010162000263565b5090565b6000815190506200029281620003fd565b92915050565b600081519050620002a98162000417565b92915050565b600081519050620002c08162000431565b92915050565b60008060008060808587031215620002dd57600080fd5b6000620002ed8782880162000281565b9450506020620003008782880162000298565b93505060406200031387828801620002af565b92505060606200032687828801620002af565b91505092959194509250565b60006200033f826200036e565b9050919050565b6000620003538262000332565b9050919050565b6000620003678262000332565b9050919050565b600073ffffffffffffffffffffffffffffffffffffffff82169050919050565b6000819050919050565b60006002820490506001821680620003b157607f821691505b60208210811415620003c857620003c7620003ce565b5b50919050565b7f4e487b7100000000000000000000000000000000000000000000000000000000600052602260045260246000fd5b620004088162000346565b81146200041457600080fd5b50565b62000422816200035a565b81146200042e57600080fd5b50565b6200043c816200038e565b81146200044857600080fd5b50565b6111f6806200045b6000396000f3fe608060405234801561001057600080fd5b50600436106100cf5760003560e01c80635a2f3d091161008c5780638dbb1e3a116100665780638dbb1e3a146101f45780638f32d59b14610224578063b6b55f2514610242578063e3161ddd1461025e576100cf565b80635a2f3d091461019957806385ce4fee146101b85780638da5cb5b146101d6576100cf565b806306fdde03146100d45780631959a002146100f2578063234859b8146101235780632e1a7d4d1461014157806348cd4cb11461015d57806351bf16ef1461017b575b600080fd5b6100dc610268565b6040516100e99190610e08565b60405180910390f35b61010c60048036038101906101079190610bb5565b6102f6565b60405161011a929190610e65565b60405180910390f35b61012b61031a565b6040516101389190610e4a565b60405180910390f35b61015b60048036038101906101569190610c07565b610320565b005b6101656105f6565b6040516101729190610e4a565b60405180910390f35b6101836105fc565b6040516101909190610dd2565b60405180910390f35b6101a1610622565b6040516101af929190610e65565b60405180910390f35b6101c0610634565b6040516101cd9190610ded565b60405180910390f35b6101de61065a565b6040516101eb9190610d3c565b60405180910390f35b61020e60048036038101906102099190610c59565b610683565b60405161021b9190610e4a565b60405180910390f35b61022c610699565b6040516102399190610db7565b60405180910390f35b61025c60048036038101906102579190610c07565b6106f0565b005b61026661098f565b005b6001805461027590611082565b80601f01602080910402602001604051908101604052809291908181526020018280546102a190611082565b80156102ee5780601f106102c3576101008083540402835291602001916102ee565b820191906000526020600020905b8154815290600101906020018083116102d157829003601f168201915b505050505081565b60086020528060005260406000206000915090508060000154908060010154905082565b60045481565b6000600860003373ffffffffffffffffffffffffffffffffffffffff1673ffffffffffffffffffffffffffffffffffffffff168152602001908152602001600020905081816000015410156103aa576040517f08c379a00000000000000000000000000000000000000000000000000000000081526004016103a190610e2a565b60405180910390fd5b6103b261098f565b6000816001015464e8d4a5100060066001015484600001546103d49190610f31565b6103de9190610f00565b6103e89190610f8b565b905060008111156104a457600260009054906101000a900473ffffffffffffffffffffffffffffffffffffffff1673ffffffffffffffffffffffffffffffffffffffff1663a9059cbb33836040518363ffffffff1660e01b8152600401610450929190610d8e565b602060405180830381600087803b15801561046a57600080fd5b505af115801561047e573d6000803e3d6000fd5b505050506040513d601f19601f820116820180604052508101906104a29190610bde565b505b6000831115610576578282600001546104bd9190610f8b565b8260000181905550600360009054906101000a900473ffffffffffffffffffffffffffffffffffffffff1673ffffffffffffffffffffffffffffffffffffffff1663a9059cbb33856040518363ffffffff1660e01b8152600401610522929190610d8e565b602060405180830381600087803b15801561053c57600080fd5b505af1158015610550573d6000803e3d6000fd5b505050506040513d601f19601f820116820180604052508101906105749190610bde565b505b64e8d4a5100060066001015483600001546105919190610f31565b61059b9190610f00565b82600101819055503373ffffffffffffffffffffffffffffffffffffffff167f884edad9ce6fa2440d8a54cc123490eb96d2768479d49ff9c7366125a9424364846040516105e99190610e4a565b60405180910390a2505050565b60055481565b600260009054906101000a900473ffffffffffffffffffffffffffffffffffffffff1681565b60068060000154908060010154905082565b600360009054906101000a900473ffffffffffffffffffffffffffffffffffffffff1681565b60008060009054906101000a900473ffffffffffffffffffffffffffffffffffffffff16905090565b600082826106919190610f8b565b905092915050565b60008060009054906101000a900473ffffffffffffffffffffffffffffffffffffffff1673ffffffffffffffffffffffffffffffffffffffff163373ffffffffffffffffffffffffffffffffffffffff1614905090565b6000600860003373ffffffffffffffffffffffffffffffffffffffff1673ffffffffffffffffffffffffffffffffffffffff168152602001908152602001600020905061073b61098f565b60008160000154111561083c576000816001015464e8d4a51000600660010154846000015461076a9190610f31565b6107749190610f00565b61077e9190610f8b565b9050600081111561083a57600260009054906101000a900473ffffffffffffffffffffffffffffffffffffffff1673ffffffffffffffffffffffffffffffffffffffff1663a9059cbb33836040518363ffffffff1660e01b81526004016107e6929190610d8e565b602060405180830381600087803b15801561080057600080fd5b505af1158015610814573d6000803e3d6000fd5b505050506040513d601f19601f820116820180604052508101906108389190610bde565b505b505b600082111561091057600360009054906101000a900473ffffffffffffffffffffffffffffffffffffffff1673ffffffffffffffffffffffffffffffffffffffff166323b872dd3330856040518463ffffffff1660e01b81526004016108a493929190610d57565b602060405180830381600087803b1580156108be57600080fd5b505af11580156108d2573d6000803e3d6000fd5b505050506040513d601f19601f820116820180604052508101906108f69190610bde565b508181600001546109079190610eaa565b81600001819055505b64e8d4a51000600660010154826000015461092b9190610f31565b6109359190610f00565b81600101819055503373ffffffffffffffffffffffffffffffffffffffff167fe1fffcc4923d04b559f4d29a8bfc6cda04eb5b0d3c460751c2402c5c5cc9109c836040516109839190610e4a565b60405180910390a25050565b60066000015443116109a057610b5f565b6000600360009054906101000a900473ffffffffffffffffffffffffffffffffffffffff1673ffffffffffffffffffffffffffffffffffffffff166370a08231306040518263ffffffff1660e01b81526004016109fd9190610d3c565b60206040518083038186803b158015610a1557600080fd5b505afa158015610a29573d6000803e3d6000fd5b505050506040513d601f19601f82011682018060405250810190610a4d9190610c30565b90506000811415610a68574360066000018190555050610b5f565b6000610a7960066000015443610683565b9050600060045482610a8b9190610f31565b9050600260009054906101000a900473ffffffffffffffffffffffffffffffffffffffff1673ffffffffffffffffffffffffffffffffffffffff166340c10f1930836040518363ffffffff1660e01b8152600401610aea929190610d8e565b600060405180830381600087803b158015610b0457600080fd5b505af1158015610b18573d6000803e3d6000fd5b505050508264e8d4a5100082610b2e9190610f31565b610b389190610f00565b600660010154610b489190610eaa565b600660010181905550436006600001819055505050505b565b600081359050610b708161117b565b92915050565b600081519050610b8581611192565b92915050565b600081359050610b9a816111a9565b92915050565b600081519050610baf816111a9565b92915050565b600060208284031215610bc757600080fd5b6000610bd584828501610b61565b91505092915050565b600060208284031215610bf057600080fd5b6000610bfe84828501610b76565b91505092915050565b600060208284031215610c1957600080fd5b6000610c2784828501610b8b565b91505092915050565b600060208284031215610c4257600080fd5b6000610c5084828501610ba0565b91505092915050565b60008060408385031215610c6c57600080fd5b6000610c7a85828601610b8b565b9250506020610c8b85828601610b8b565b9150509250929050565b610c9e81610fbf565b82525050565b610cad81610fd1565b82525050565b610cbc81611007565b82525050565b610ccb8161102b565b82525050565b6000610cdc82610e8e565b610ce68185610e99565b9350610cf681856020860161104f565b610cff81611141565b840191505092915050565b6000610d17601283610e99565b9150610d2282611152565b602082019050919050565b610d3681610ffd565b82525050565b6000602082019050610d516000830184610c95565b92915050565b6000606082019050610d6c6000830186610c95565b610d796020830185610c95565b610d866040830184610d2d565b949350505050565b6000604082019050610da36000830185610c95565b610db06020830184610d2d565b9392505050565b6000602082019050610dcc6000830184610ca4565b92915050565b6000602082019050610de76000830184610cb3565b92915050565b6000602082019050610e026000830184610cc2565b92915050565b60006020820190508181036000830152610e228184610cd1565b905092915050565b60006020820190508181036000830152610e4381610d0a565b9050919050565b6000602082019050610e5f6000830184610d2d565b92915050565b6000604082019050610e7a6000830185610d2d565b610e876020830184610d2d565b9392505050565b600081519050919050565b600082825260208201905092915050565b6000610eb582610ffd565b9150610ec083610ffd565b9250827fffffffffffffffffffffffffffffffffffffffffffffffffffffffffffffffff03821115610ef557610ef46110b4565b5b828201905092915050565b6000610f0b82610ffd565b9150610f1683610ffd565b925082610f2657610f256110e3565b5b828204905092915050565b6000610f3c82610ffd565b9150610f4783610ffd565b9250817fffffffffffffffffffffffffffffffffffffffffffffffffffffffffffffffff0483118215151615610f8057610f7f6110b4565b5b828202905092915050565b6000610f9682610ffd565b9150610fa183610ffd565b925082821015610fb457610fb36110b4565b5b828203905092915050565b6000610fca82610fdd565b9050919050565b60008115159050919050565b600073ffffffffffffffffffffffffffffffffffffffff82169050919050565b6000819050919050565b600061101282611019565b9050919050565b600061102482610fdd565b9050919050565b60006110368261103d565b9050919050565b600061104882610fdd565b9050919050565b60005b8381101561106d578082015181840152602081019050611052565b8381111561107c576000848401525b50505050565b6000600282049050600182168061109a57607f821691505b602082108114156110ae576110ad611112565b5b50919050565b7f4e487b7100000000000000000000000000000000000000000000000000000000600052601160045260246000fd5b7f4e487b7100000000000000000000000000000000000000000000000000000000600052601260045260246000fd5b7f4e487b7100000000000000000000000000000000000000000000000000000000600052602260045260246000fd5b6000601f19601f8301169050919050565b7f77697468647261773a206e6f7420676f6f640000000000000000000000000000600082015250565b61118481610fbf565b811461118f57600080fd5b50565b61119b81610fd1565b81146111a657600080fd5b50565b6111b281610ffd565b81146111bd57600080fd5b5056fea26469706673582212207e96bf66d3fc01cfc448109c20664db577652f9cea85ed0b739f75ef1f23b0ad64736f6c63430008020033",
  "immutableReferences": {},
  "source": "pragma solidity ^0.8.0;\r\n\r\nimport \"./PurseTokenUpgradable.sol\";\r\nimport \"./UniToken.sol\";\r\nimport \"./Ownable.sol\";\r\nimport \"./CheckContract.sol\";\r\n\r\ncontract RestakingFarm is CheckContract, Ownable{\r\n\r\n    // ---Contract Variables---\r\n    string public name = \"RestakingFarm\";\r\n\r\n\r\n    // Userinfo\r\n    struct UserInfo {\r\n        uint256 amount;     // How many LP tokens the user has provided.\r\n        uint256 rewardDebt; // Reward debt. See explanation below.\r\n        //\r\n        // We do some fancy math here. Basically, any point in time, the amount of PURSEs\r\n        // entitled to a user but is pending to be distributed is:\r\n        //\r\n        //   pending reward = (user.amount * pool.accPursePerShare) - user.rewardDebt\r\n        //\r\n        // Whenever a user deposits or withdraws LP tokens to a pool. Here's what happens:\r\n        //   1. The pool's `accPursePerShare` (and `lastRewardBlock`) gets updated.\r\n        //   2. User receives the pending reward sent to his/her address.\r\n        //   3. User's `amount` gets updated.\r\n        //   4. User's `rewardDebt` gets updated.\r\n    }\r\n    \r\n    // Info of each pool.\r\n    struct PoolInfo {\r\n        uint256 lastRewardBlock;  // Last block number that PURSEs distribution occurs.\r\n        uint256 accPursePerShare; // Accumulated PURSEs per share, times 1e12. See below.\r\n    }\r\n\r\n    // The PURSE TOKEN!\r\n    PurseTokenUpgradable public purseToken;\r\n    // The UNI TOKEN!\r\n    UniToken public uniToken;\r\n    // PURSE tokens created per block.\r\n    uint256 public pursePerBlock;\r\n    uint256 public startBlock;\r\n    PoolInfo public poolInfo;\r\n\r\n\r\n\r\n    // Info of each user that stakes LP tokens.\r\n    mapping (address => UserInfo) public userInfo;\r\n\r\n    event Deposit(address indexed user, uint256 amount);\r\n    event Withdraw(address indexed user, uint256 amount);\r\n\r\n    constructor(\r\n        PurseTokenUpgradable _purseToken,\r\n        UniToken _uniToken,\r\n        uint256 _pursePerBlock,\r\n        uint256 _startBlock\r\n    ) public {\r\n        purseToken = _purseToken;\r\n        uniToken = _uniToken;\r\n        pursePerBlock = _pursePerBlock;\r\n        startBlock = _startBlock;\r\n        \r\n        // staking pool\r\n        poolInfo.lastRewardBlock=startBlock;\r\n        poolInfo.accPursePerShare=0;\r\n        }\r\n    \r\n    // Return reward multiplier over the given _from to _to block.\r\n    function getMultiplier(uint256 _from, uint256 _to) public pure returns (uint256) {\r\n        return _to-_from;\r\n    }\r\n\r\n    // Update reward variables of the given pool to be up-to-date.\r\n    function updatePool() public {\r\n        if (block.number <= poolInfo.lastRewardBlock) {\r\n            return;\r\n        }\r\n        uint256 lpSupply = uniToken.balanceOf(address(this));\r\n        if (lpSupply == 0) {\r\n            poolInfo.lastRewardBlock = block.number;\r\n            return;\r\n        }\r\n        uint256 multiplier = getMultiplier(poolInfo.lastRewardBlock, block.number);\r\n        uint256 purseReward = multiplier*pursePerBlock;\r\n        purseToken.mint(address(this), purseReward);\r\n        poolInfo.accPursePerShare = poolInfo.accPursePerShare+(purseReward*1e12/lpSupply);\r\n        poolInfo.lastRewardBlock = block.number;\r\n    }\r\n\r\n    // Deposit LP tokens to Restaking Pool for Purse allocation.\r\n    function deposit(uint256 _amount) public {\r\n\r\n        UserInfo storage user = userInfo[msg.sender];\r\n        updatePool();\r\n        if (user.amount > 0) {\r\n            uint256 pending = user.amount*poolInfo.accPursePerShare/1e12-user.rewardDebt;\r\n            if(pending > 0) {\r\n                purseToken.transfer(msg.sender, pending);\r\n            }\r\n        }\r\n        if (_amount > 0) {\r\n            uniToken.transferFrom(address(msg.sender), address(this), _amount);\r\n            user.amount = user.amount+_amount;\r\n        }\r\n        user.rewardDebt = user.amount*poolInfo.accPursePerShare/1e12;\r\n        emit Deposit(msg.sender, _amount);\r\n    }\r\n        // Withdraw LP tokens from MasterChef.\r\n    function withdraw(uint256 _amount) public {\r\n\r\n        UserInfo storage user = userInfo[msg.sender];\r\n        require(user.amount >= _amount, \"withdraw: not good\");\r\n\r\n        updatePool();\r\n        uint256 pending = user.amount*poolInfo.accPursePerShare/1e12-user.rewardDebt;\r\n        if(pending > 0) {\r\n            purseToken.transfer(msg.sender, pending);\r\n        }\r\n        if(_amount > 0) {\r\n            user.amount = user.amount-_amount;\r\n            uniToken.transfer(address(msg.sender), _amount);\r\n        }\r\n        user.rewardDebt = user.amount*poolInfo.accPursePerShare/1e12;\r\n        emit Withdraw(msg.sender, _amount);\r\n    }\r\n}\r\n\r\n",
  "sourcePath": "C:\\Users\\richa\\Desktop\\RestakingPool\\src\\contracts\\RestakingFarm.sol",
  "compiler": {
    "name": "solc",
    "version": "0.8.2+commit.661d1103.Emscripten.clang"
  },
  "schemaVersion": "3.4.3",
  "updatedAt": "2021-09-20T01:55:22.423Z",
  "devdoc": {
    "kind": "dev",
    "methods": {
      "isOwner()": {
        "details": "Returns true if the caller is the current owner."
      },
      "owner()": {
        "details": "Returns the address of the current owner."
      }
    },
    "version": 1
  },
  "userdoc": {
    "kind": "user",
    "methods": {},
    "version": 1
  }
}